:020000040800F2
:1000000038FB0020CD010008071600085B1300082C
:10001000C11400085B0500085B39000800000000FF
:100020000000000000000000000000008D34000807
:10003000B10F000800000000910100080936000817
:10004000E7010008E7010008E7010008E7010008F0
:10005000E7010008E7010008E7010008E7010008E0
:10006000E7010008E7010008E7010008E7010008D0
:10007000E7010008E7010008E7010008E7010008C0
:10008000E7010008E7010008E7010008E7010008B0
:10009000E7010008E7010008E7010008E7010008A0
:1000A000E7010008E7010008E7010008E701000890
:1000B000E701000871360008E7010008E7010008C1
:1000C000E7010008E7010008E7010008E701000870
:1000D000E7010008A5370008E7010008E70100086C
:1000E000B50F0008E7010008E7010008E701000874
:1000F000E7010008E7010008E7010008E701000840
:10010000E7010008E7010008E7010008E70100082F
:10011000E7010008E7010008E7010008E70100081F
:10012000E7010008E7010008E7010008E70100080F
:10013000DFF80CD000F0D4F900480047C59800085B
:1001400038FB00200138FDD170470000EFF310802C
:1001500072B6704780F31088704772B606484FF049
:10016000FF010170002080F3098804484FF080519E
:10017000C0F8001062B6FEE722ED00E004ED00E0FA
:1001800002484FF0805101607047000004ED00E02C
:1001900072B6EFF3098028B1203880E8F00F0949E2
:1001A0000968086000B5DFF8200080475DF804EBBF
:1001B00090E8F00F203080F309884EF0040E62B60C
:1001C0007047000070000020491A00080648804768
:1001D00006480047FEE7FEE7FEE7FEE7FEE7FEE72C
:1001E000FEE7FEE7FEE7FEE71136000831010008F2
:1001F0002DE9F05F0546002092469B46884606465C
:10020000814640241BE0284641464746224600F0EE
:1002100020F953465A46C01A914110D31146184648
:10022000224600F007F92D1A67EB01084F462246D7
:100230000120002100F0FEF817EB00094E41201EBE
:10024000A4F10104DFDC484631462A464346BDE8B6
:10025000F09F2DE9F0410024061B254671F10006B0
:1002600005DA01240027D0EB070067EB0101161E19
:1002700073F1000605DA0027D2EB0702012567EBD0
:100280000303FFF7B5FF86460E4617469C46AC4271
:1002900004D00025D0EB050E65EB010624B100204B
:1002A000D2EB000760EB030C704631463A466346DA
:1002B000BDE8F081A0F14101192900D82030704734
:1002C00010B5431A934209D28318881803E010F836
:1002D000011D03F8011D521EF9D210BD40EA0103B1
:1002E0009B0703D009E008C9121F08C0042AFAD2EC
:1002F00003E011F8013B00F8013B521EF9D210BD9A
:10030000D2B201E000F8012B491EFBD27047002257
:10031000F6E710B513460A4604461946FFF7F0FF04
:10032000204610BDCAB2401E10F8011F8A4202D0FA
:100330000029F9D100207047421C10F8011B002948
:10034000FBD1801A704710B5002200E0521C835C7C
:100350008C5CA34201D1002BF8D1D8B2E1B2401A93
:1003600010BD30B504460020034600E05B1C9342FC
:1003700003D2E05CCD5C401BF8D030BD30B5054603
:100380000020034600E05B1C934205D2EC5CC85C95
:10039000201A01D1002CF6D130BD30B480EA010220
:1003A00002F0004530F0004221F0004013D090B13F
:1003B000C30DD40DC2F31601C0F31600E41A41F4C4
:1003C000000140F400027D34914201D3641C00E03E
:1003D0004900002C02DA30BC002070474FF40000C6
:1003E0000023914201D3891A034340084FEA410197
:1003F000F7D151B1914202D14FF0004105E002D254
:100400004FF0010101E06FF0010103EBC4502844FB
:1004100030BC00F02EB896230022114600F032B80E
:10042000002801DBC0F10040002901DBC1F10041DF
:1004300081427047202A04DB203A00FA02F10020B2
:1004400070479140C2F1200320FA03F31943904012
:100450007047202A04DB203A21FA02F0002170477D
:1004600021FA02F3D040C2F120029140084319461C
:1004700070470029A8BF7047401C490008BF20F002
:100480000100704710B4B0FA80FC00FA0CF050EA9A
:10049000010404BF10BC704749B1CCF1200421FA1B
:1004A00004F411FA0CF118BF012121430843A3EB16
:1004B0000C01CB1D4FEA00614FEA102042BF002023
:1004C00010BC704700EBC35010440029A4BF10BCFF
:1004D0007047401C490008BF20F0010010BC704765
:1004E000064C074D06E0E06840F0010394E8070081
:1004F00098471034AC42F6D3FFF71EFE9CB00308B9
:10050000BCB0030870B58C1810F8015B15F0070338
:1005100001D110F8013B2A1106D110F8012B03E09C
:1005200010F8016B01F8016B5B1EF9D12B0705D4A4
:100530000023521E0DD401F8013BFAE710F8013BED
:10054000CB1A921C03E013F8015B01F8015B521E09
:10055000F9D5A142D8D3002070BD00BFFEE770B529
:1005600000254FF4803404E0802001F025FC00B128
:1005700003E0201EA4F10104F6D100BF0CB9032052
:1005800070BD40F2FF5001F0D1FB2846F8E70000B3
:1005900070B5044605E01548456B05F0450000B10F
:1005A00000E0F8E700BF042001F006FC20B10420C1
:1005B00001F0BCFB032070BD012001F0FDFB20B168
:1005C000012001F0B3FB0120F5E708480069A042D3
:1005D00001D01020EFE740F2FF500449886308463D
:1005E000406908210840C0B2E5E7000000800140F2
:1005F00070B500264FF4803505E01148446B04F0D7
:10060000450000B103E0281EA5F10105F5D100BFAA
:1006100015B104F0040028B10326042001F086FB84
:10062000304670BD012001F0C7FB18B10126012042
:1006300001F07CFB40F2FF5001F078FB3046F0E720
:100640000080014010B505E00B48446B04F0450004
:1006500000B100E0F8E700BF042001F0ADFB20B1DD
:10066000042001F063FB032010BD40F2FF5001F0B5
:100670005DFB0020F8E70000008001402DE9F0411B
:1006800005460E464FF0000805E01F48476B07F08F
:10069000450000B100E0F8E700BF042001F08CFB4A
:1006A00028B1042001F042FB0320BDE8F0810120C5
:1006B00001F082FB20B1012001F038FB0120F4E7BA
:1006C00011480069A84201D01020EEE740F2FF5027
:1006D00001F02CFB0C48446904F4604018B9200C6C
:1006E00030804046E1E704F4005008B11320DCE715
:1006F00004F4804008B11020D7E704F4004008B1AA
:100700000F20D2E74046D0E70080014070B50026B8
:100710004FF4803505E00F48446B04F0450000B10C
:1007200003E0281EA5F10105F5D100BF15B104F0C5
:10073000040028B10326042001F0F8FA304670BD09
:1007400004F0400018B10026402001F0EFFA3046D6
:10075000F5E700000080014000B5282000F03EF9D8
:100760000246292000F03AF942EA00222A2000F04D
:1007700035F942EA00422B2000F030F942EA0062EB
:10078000104600BD70B505467948406940F4807058
:10079000774948610846806940F020008861084632
:1007A000806940F0400088610846806940F0800020
:1007B00088610846806940F4807088616D480068EF
:1007C0006D4908406D4908436A4908600846006859
:1007D00000F0FF2040F0BB10091F08606848006867
:1007E0004FF0BB3066490860081F006820F0704079
:1007F00040F03040091F08606248006862490840C4
:10080000624908435F4908606148406820F0FF0082
:1008100040F0B3005E4948605A480830006840F430
:10082000006058490831086001220B21052000F0C2
:10083000EFFB022328220021012000F0F1FD00201F
:100840004FF020418860C860524908604FF0204056
:10085000806840F480504FF02041886008468068EE
:1008600040F0100088600846C06840F44070C860DE
:100870000846C068C8600846C06840F00100C8600B
:100880006FF07040C1F80C010846806840F001002C
:10089000886041480468082040490870002048806A
:1008A000812048700220087100213C48417181710B
:1008B000210CC171210A01724472FF2037498872EC
:1008C000FF213648C172017341738173C173017492
:1008D000417400F091F9642003F074FFFFF73CFFCE
:1008E00004462F48844201D0012070BD0DB900207C
:1008F000FBE72A49087800F039FA0021084600F0A1
:1009000063FA0021022000F05FFA3F21082000F086
:100910005BFA3821092000F057FA00210A2000F084
:1009200053FA00212F2000F04FFA2C21012000F073
:100930004BFA0F21FE2000F047FA80212D2000F015
:1009400043FA1648001D00F0F5F914480A3000F08B
:10095000FFF93121052000F037FA8021FF2000F057
:1009600033FA0E484178FF2000F02EFA0020BCE751
:10097000001002400414014000F0FF00BB0B00BB5C
:1009800004180140041C0140FF0F0FFF0080B0005D
:10099000002001400C0100A0E8F7FF1F80070020A5
:1009A000460A009070B505460C4645F040010C2003
:1009B00000F00AFAE1B20D2000F006FA210A0E203A
:1009C00000F002FA0A210B2000F0FEF9322003F0B9
:1009D000F9FE00210B2000F0F7F970BD0146034835
:1009E00001804FF0C840B0F800017047FE0000647D
:1009F0002DE9FE430024611E5748006800F0D2FD37
:100A000000BFF020FFF7EAFF5448008800F0FF081D
:100A1000B8F1000F7ED0B8F1010F11D950A002F04B
:100A20009FFF0021052000F0CFF98021FE2000F07B
:100A3000CBF94948006800F0D9FD2046BDE8FE83A7
:100A4000F2204649891E08804FF0C840B0F80001E6
:100A50000290881C008801904FF4C172BDF8041008
:100A6000002009F0A8FB04468CB125460CE06F6815
:100A70006E8906E04FF0C840B0F800013880BF1C16
:100A8000B61E002EF6DC2D68002DF0D110E0BDF86A
:100A900004103CA002F064FF6F46BDF8046005E05E
:100AA0004FF0C840B0F800013880B61E002EF7D1D4
:100AB000BDF8080000F43F4040B9BDF804004028EC
:100AC00004DBBDF80400B0F5C06F3FDDBDF80810D1
:100AD00032A002F045FFBDF8080000F4807010B1AC
:100AE00032A002F03DFFBDF8080000F4007010B124
:100AF00032A002F035FFBDF8080000F4004010B14C
:100B000032A002F02DFFBDF80400B0F5C06F0BDD80
:100B100033A000E00EE002F023FF0121002000F0EE
:100B200053F9052003F04EFE14B1204609F00EFDE6
:100B3000002466E70221FE2000F046F981202D49BD
:100B4000487008464178FF2000F03EF902480068EE
:100B500000F04CFD204671E73800002000010064E1
:100B6000646D393030302072783A207278206572A6
:100B7000726F722C2073746F702064657669636580
:100B80000D0A000070627566C4DAB4E6C9EAC7EB04
:100B9000CAA7B0DC3A25640D0A00000072785F73C2
:100BA00074617475733A2523780D0A007278206693
:100BB00069666F206572726F720D0A007278206329
:100BC0007263206572726F720D0A00007278206C79
:100BD000656E677468206572726F720D0A0000009E
:100BE0007278206C656E67746820746F6F2062691C
:100BF000670D0A008007002010B500201B4908601F
:100C00000A2003F0DFFD01201949C1F8A00164208A
:100C100003F0D8FD01211E2000F0D6F800211F208E
:100C200000F0D2F80321002000F0CEF800BF192018
:100C300003F0C8FD0020FFF7D1FE00F001000028FE
:100C4000F5D10021084600F0BFF80321002000F094
:100C5000BBF800BF192003F0B5FD0020FFF7BEFE72
:100C600000F001000028F5D110BD0000A0012442D1
:100C700000002442F8B5044600270026711E2A48C9
:100C8000006800F08FFC8021FF2000F09DF8F82024
:100C90002649088025461BE06889B84216DD38469B
:100CA000791C8FB26A68125C3046711CCEB20DF8A6
:100CB0000020022E0CD19DF800009DF8011040EAA2
:100CC00001201A49891C0880002601E02D680027B0
:100CD000002DE1D1012E04D19DF800001349891C9B
:100CE0000880217AFC2000F06FF82089010AFD209D
:100CF00000F06AF80121022000F066F800BFFE2033
:100D0000FFF76CFE00F002000028F8D00221FE2060
:100D100000F05AF806484178FF2000F055F80248E4
:100D2000006800F063FCF8BD38000020FE0000649D
:100D30008007002010B50446002306E0E15C03F1C3
:100D4000100000F041F8581CC3B2062BF6DB10BDB2
:100D500010B50446002306E0E15C03F1160000F044
:100D600033F8581CC3B2082BF6DB10BD70B506462D
:100D7000092E1BD2DFE806F0050C1A1A08101A1A01
:100D800015000024212511E04FF4807441250DE069
:100D90004FF40054812509E04FF4045440F201154A
:100DA00004E04FF4805440F2E11500BF00BF21463B
:100DB0000020FFF7F7FD29460420FFF7F3FD00218F
:100DC0001F2000F001F870BD034A10804FF0C842A8
:100DD000A2F8001170470000FE00006470B50A48D8
:100DE0000588FE20FFF7FAFD04462146FE20FFF7A6
:100DF000EBFF04F0010018B10448006802F07BFB2F
:100E00000148058070BD0000FE0000643400002031
:100E100021B1026842F00102026004E002684FF66C
:100E2000FE731A400260704701684FF6FE7211406F
:100E300001600021016041608160C1604B498842CE
:100E400008D14A490839496841F00F01474A083A30
:100E500051608AE045491431884208D14349083934
:100E6000496841F0F001414A083A51607DE03F494C
:100E70002831884208D13D490839496841F47061F8
:100E80003A4A083A516070E038493C31884208D10A
:100E900036490839496841F47041344A083A51608A
:100EA00063E032495031884208D1304908394968F5
:100EB00041F470212D4A083A516056E02B496431C3
:100EC000884208D129490839496841F47001274A04
:100ED000083A516049E025497831884208D12349D0
:100EE0000839496841F07061204A083A51603CE095
:100EF0001F49884206D1011F096841F00F01021FF6
:100F0000116032E01A491431884208D11849091F8A
:100F1000096841F0F001164A121F116025E01449DA
:100F20002831884208D11249091F096841F47061CB
:100F30000F4A121F116018E00D493C31884208D158
:100F40000B49091F096841F47041094A121F1160D9
:100F50000BE007495031884207D10549091F09684C
:100F600041F47021024A121F1160704708000240CC
:100F70000804024010B50022026847F6F0739A4355
:100F80000C6A8B6823430C6923434C6923438C69A7
:100F90002343CC6923434C6A23438C6A23431A437B
:100FA0000260CB6843600B6883604B68C36010BD10
:100FB0007047000010B54FF4006000F015F850B114
:100FC0004FF4006000F00AF801E0FFF707FF024865
:100FD00000680028F9D010BD2C8123420149086027
:100FE0007047000014040140014600200022074B16
:100FF0001B6803EA0102054B14331B680B4013B155
:101000000AB1012000E00020704700000004014008
:1010100070B504460B46CE1701EB9676C6F38700F3
:10102000CE1701EB9676B610A1EB8606B606350E06
:101030001C4B9B6943F001031A4EB3614FEAB63370
:1010400053F820300F26AE40B343174E46F82030F9
:10105000334653F8203004FA05F61E43124B43F88A
:101060002060124B1B6801268E4033430F4E3360C5
:1010700002F0010343B10D4B0C331B6801268E4077
:1010800033430A4E0C36336002F0020343B1074B80
:1010900008331E6801238B401E43044B08331E6037
:1010A00070BD000000100240080001400004014033
:1010B0002DE9FC4107460D46002600240020009043
:1010C000019008205B49086010204860402088603B
:1010D0000020C8604FF480600861084600F09EFE62
:1010E0001020FFF755FA044614B12046BDE8FC81F4
:1010F0005148008800044F4908603720486040206C
:1011000088600020C8604FF480600861084600F0E5
:1011100085FE3720FFF73CFA04460CB12046E5E790
:101120004FF0FF3045490860082048603020886053
:101130000220C8600020086101204861084600F0D4
:1011400011FE00203B490860332048604020886041
:101150000020C8604FF480600861084600F05EFE21
:101160003320FFF715FA04460CB12046BEE70CE029
:101170004FF4001000F020FE38B100F049FE4DF8A9
:101180002600761C022E00D306E02D48406B40F26C
:101190002A6108400028EBD000BF082000F00CFEB8
:1011A00020B1082000F0C2FD04209FE7022000F0DB
:1011B00003FE20B1022000F0B9FD022096E72020B6
:1011C00000F0FAFD20B1202000F0B0FD06208DE7F0
:1011D0004FF4007000F0F0FD28B14FF4007000F003
:1011E000A5FD072082E740F2FF5000F09FFD009828
:1011F0000006009901F47F4140EA0120009901F4C2
:101200007F0140EA1120009940EA1160686001986E
:101210000006019901F47F4140EA0120019901F49F
:101220007F0140EA1120019940EA116028602046C0
:101230005CE70000B007002044000020C407002045
:10124000008001402DE9F0410246002500260020E3
:1012500000230024002791F803C00CF00F0591F83B
:1012600003C00CF0100CBCF1000F03D091F802C0C9
:101270004CEA050591F800C0BCF1000F31D01468AC
:1012800000202BE04FF0010C0CFA00F3B1F800C085
:101290000CEA03069E4220D183004FF00F0C0CFA9B
:1012A00003F7BC4305FA03FC4CEA040491F803C0BD
:1012B000BCF1280F06D14FF0010C0CFA00FCC2F86B
:1012C00014C00AE091F803C0BCF1480F05D14FF0FB
:1012D000010C0CFA00FCC2F810C0401C0828D1D345
:1012E0001460B1F800C0BCF1FF0F34DD5468002079
:1012F0002EE000F1080C4FF0010808FA0CF3B1F8E9
:1013000000C00CEA03069E4221D183004FF00F0C6F
:101310000CFA03F7BC4305FA03FC4CEA040491F809
:1013200003C0BCF1280F05D100F1080C08FA0CF835
:10133000C2F8148091F803C0BCF1480F07D100F146
:10134000080C4FF0010808FA0CF8C2F81080401C95
:101350000828CED35460BDE8F08100BFFEE772B626
:10136000704762B670470000002004E00021044A84
:1013700022F81010401CB0F5706FF7D370470000D2
:10138000588200201CB5044600200190009021489E
:1013900000880004204908600D20486040208860D3
:1013A0000020C8604FF480600861084600F036FDF8
:1013B0001A48406B009002E01848406B009000987B
:1013C00000F045000028F7D0012000F0F5FC20B126
:1013D000012000F0ABFC01201CBD042000F0ECFC5F
:1013E00020B1042000F0A2FC0320F5E70B480069BF
:1013F0000D2801D01020EFE740F2FF5000F096FCDE
:101400000648406901900198C0F3432020700020F5
:10141000E2E7000044000020B00700200080014007
:101420002DE9F0410746884614461D46284600F03F
:1014300033F8C5F1040007FA00F60F20284100EA4E
:101440000800064306F00F06E21704EBD2625211C1
:10145000920002F1E022D2F800212146E31704EBCA
:10146000D3635B11A4EB431C012303FA0CF31A436F
:101470002046E31704EBD3635B119B0003F1E023E9
:10148000C3F800210348005D40EA061001490855F1
:10149000BDE8F08100E400E00146072323EA0102F1
:1014A0001202054B18684FF6FF031840034B184310
:1014B0001043014B186070470CED00E00000FA0586
:1014C00000BFFEE710B58C2000F0ECF904460CB923
:1014D000002010BD24600020A06060602046F8E776
:1014E00070B504460E4615460CB9002070BD681C48
:1014F000D0B900BF204600F037F80128FAD000F03C
:1015000087F96168481CC11700EBD1614911A0EB54
:101510004111616004F10C00616850F821003060F5
:1015200000F086F90120E1E715B1284600F058FAED
:10153000204600F019F8012814D000F069F961681C
:10154000481CC11700EBD1614911A0EB411161604A
:1015500004F10C00616850F82100306000F068F977
:101560000120C3E70020C1E70146D1E90102904212
:1015700001D1012070470020FCE710B5012000F0E8
:1015800091F904460CB9002010BD002020702046BF
:10159000FAE710B5044604B910BD204600F06EF914
:1015A00000BFF9E770B504460D460CB9002070BDC8
:1015B000681C58B900BF20780028FCD100F028F939
:1015C0000120207000F034F90120F0E715B1284621
:1015D00000F006FA207838B900F01AF901202070DE
:1015E00000F026F90120E2E70020E0E710B504460C
:1015F0000CB9002010BD00F00BF90020207000F0A5
:1016000017F90120F6E7704770B5002100230F227B
:10161000C47804B3154C246804F4E064C4F5E064B1
:10162000210AC1F10403CA40447804FA03F1847822
:101630001440214309010E4C0678A155047804F0AA
:101640001F050124AC4005786D11AD0005F1E025C2
:10165000C5F8004109E0047804F01F050124AC40FE
:10166000044D0678761145F8264070BD0CED00E07B
:1016700000E400E080E100E002490143024A116019
:10168000704700000000FA050CED00E02DE9FE4F68
:1016900006460F4690461C46DDF830A01C2000F0A0
:1016A00001F98146B9F1000F02D10020BDE8FE8F9B
:1016B000A00000F0F7F8054625B9484600F0DEF82E
:1016C0000020F3E70021601E05EB800043463A4608
:1016D000CDE9014100903146484600F00BF838B999
:1016E000284600F0CBF8484600F0C8F80020DDE7B7
:1016F0004846DBE72DE9F05F054689469246984665
:101700000A9C15B90020BDE8F09F0CB90020FAE74B
:1017100000F0A4F80746002F01DA0020F3E70B9849
:10172000A4EB800B26464FF080702060201F0446FB
:10173000C0F800902D49201F044601604FF012317F
:10174000201F044601604FF00331201F0446016052
:101750004FF00231201F044601604910201F04464B
:101760000160201F0446C0F800A04FF01131201F77
:10177000044601604FF01031201F044601604FF015
:101780000931201F044601604FF00831201F044634
:1017900001604FF00731201F044601604FF0063111
:1017A000201F044601604FF00531201F04460160F0
:1017B0004FF00431201F044601602C600020E860D7
:1017C00028616D6101202876B8F10A0F01DD4FF024
:1017D0000A0885F81980C5F804B0AE600C98A876A0
:1017E000034840F8275001208DE70000011A000847
:1017F00058A00020F8B504460D4616461F460020A6
:101800003B463246294600902046FFF73FFFF8BD91
:1018100010B5FEF79BFC0449086004480078401CA2
:101820000249087010BD0000780000207C000020F4
:1018300010B50848007800280BDD06480078401EE7
:10184000044908700846007818B903480068FEF794
:1018500081FC10BD7C00002078000020002106E003
:10186000054850F8210008B908467047491C10295E
:10187000F6D34FF0FF30F8E758A0002010B504462B
:10188000204602F08DF810BD00BF00BFFEE700004B
:1018900010B5FFF769FD00200149087010BD000078
:1018A0007D00002010B50446204602F097F810BDD8
:1018B00070B51C480068401C1A49086000242DE0DF
:1018C000194850F8240040B3174850F82400007E0F
:1018D000012822D1144850F82400006970B1FEF7A5
:1018E00035FC0546104850F824000069401E0E499A
:1018F00051F8241008612846FEF72CFCFEF726FC60
:101900000546094850F82400C068401C064951F8B3
:101910002410C8602846FEF71DFC641C102CCFD391
:1019200070BD00006C00002058A0002010B50348D6
:10193000007808B1FEF724FC10BD00007D000020F7
:1019400010B50448007818B1FFF7B2FFFFF7EEFFBB
:1019500010BD00007D00002010B540230A220021A8
:101960000548FFF747FF00B910BD01200349087083
:10197000FEF7F3FB00BFF7E7891800087D000020A1
:1019800001480068704700006C00002070B5FEF749
:10199000DDFB0546002415E00F4850F824000F49F0
:1019A000096888420DD10D4909684868FFF766FF4C
:1019B0000A480068FFF762FF0020074941F8240049
:1019C00002E0641C102CE7D300BF2846FEF7C2FBE0
:1019D000FEF7D6FB70BD000058A000207400002068
:1019E00070B50446FEF7B2FB054604480068046182
:1019F0002846FEF7AFFBFEF7C3FB70BD7400002066
:101A000010B510480068807E10B9FFF7BFFF18E0DE
:101A10000C48006890F8240010B9FFF7B7FF10E0F9
:101A200008480068C06907490968C968441A002C59
:101A300002DD2046FFF7D4FF0248006801F052FEA5
:101A400000BF10BD7400002010B5002100223E48E8
:101A50000068807E012811D13B48006890F825007D
:101A600001280BD13848006880683C38374B1B6828
:101A700018600020344B1B6883F825003448006848
:101A800070B30020002128E0324B53F82130304C55
:101A90002468A34201D101201EE001281BD12D4B57
:101AA00053F82130BBB12B4B53F821301B7E012B57
:101AB00011D1284B53F821301B6963B9244B1B68A3
:101AC0005B7E244C54F82140647EA34203D1214B19
:101AD00053F8212030E000BF491C1029D4D300BFA7
:101AE00000201B4B1860002123E01A4850F8210009
:101AF000E8B1184850F82100007E012817D1154898
:101B000050F82100006990B91AB1107E08B110692F
:101B100018B1104850F821200AE0507E0D4B53F8C0
:101B200021305B7E984202DD0A4850F8212000BF38
:101B3000491C1029D9D300BF044802600248026042
:101B400003480260106810BD74000020700000207F
:101B50008000002058A0002029B1064A52690243A3
:101B6000044B5A6104E0034A52698243014B5A61B3
:101B7000704700000010024029B1064A92690243F2
:101B8000044B9A6104E0034A92698243014B9A61D3
:101B9000704700000010024030B5002100220024F0
:101BA00000232D4D6D6805F00C0121B1042905D0ED
:101BB000082923D105E0294D056022E0274D056065
:101BC0001FE0254D6D6805F47012234D6D6805F416
:101BD0008034022505EB92421CB9214D5543056026
:101BE0000BE01D4D6D6805F400351DB11C4D5543CE
:101BF000056002E0194D5543056002E0174D056090
:101C000000BF00BF144D6D6805F0F0010909154DC6
:101C10006B5C0568DD4045600F4D6D6805F4E06163
:101C2000090A104D6B5C4568DD4085600A4D6D68A2
:101C300005F46051C90A0B4D6B5C4568DD40C56019
:101C4000054D6D6805F44041890B074D6B5CC56817
:101C5000B5FBF3F5056130BD0010024000127A00BB
:101C600000093D00560000206600002010B58023CA
:101C7000052200210148FFF7BDFD10BDC136000857
:101C80007CB50546002400200090019000260DB18F
:101C9000022600E000262248406900F0007008B1EA
:101CA0000E207CBD1F49098888B26946FFF700FAFB
:101CB00004460CB12046F4E7019800F4802060B39C
:101CC0001848008800041849086037204860402000
:101CD00088600020C8604FF480600861084600F00A
:101CE0009DF83720FEF754FC04460CB12046D8E797
:101CF0000D48066006200C4948604020886000209E
:101D0000C8604FF480600861084600F087F806203C
:101D1000FEF73EFC04462046C3E72520C1E700004D
:101D20000080014044000020B00700200149886382
:101D300070470000008001400149086070470000C2
:101D4000A00030420146034A506820F0FF000843DB
:101D500050607047008001400149086070470000F2
:101D60008C05304200210A4B02685A6242689A622E
:101D70001A46D16A21F0F701D0E902231A43036918
:101D80001A4343691A431143014AD1627047000064
:101D90000080014000200649086048608860C860F3
:101DA00048628862C862034888630020C86370473D
:101DB00000800140FF07C00001460020034A526B2B
:101DC0000A400AB1012000E0002070470080014075
:101DD0000248006800F003007047000000800140E6
:101DE00000210A4A516847F6FF629143027D8368E9
:101DF0001A4343681A43C3681A4303681A430369C2
:101E00001A431143014A51607047000000800140AD
:101E10000148006870470000808001400021094BA4
:101E200002689A601A46D1686FF30A01D0E901236B
:101E30001A43C3681A4303691A431143014AD16024
:101E400070470000008001400549096821F0030146
:101E5000034A116011460968014311607047000090
:101E60000080014001490860704700008080014007
:101E700070B58CB006460C46154601210220FFF7CE
:101E80006BFE1348FEF7D0FF00211148FEF7C0FF9C
:101E90001048019002960395A00804900020059038
:101EA0008020069080000790800008900020099014
:101EB0004FF400500A9000200B9001A90448FFF74E
:101EC00059F800210248FEF7A3FF0CB070BD0000D6
:101ED000440402408080014070B504460025164845
:101EE0000078032801D1272070BD1348007838B14D
:101EF00011480078012803D00F480078022818D133
:101F0000022C01D32720EFE7E0B2FFF7B9FE054628
:101F10007DB90A48406820F4C05008494860084626
:101F20004068A1B240EAC1200449486008464068C0
:101F300048602846D8E700004000002000800140AB
:101F4000F0B5014600200022BE4B1B7881F85630C8
:101F5000BD4B1B88A1F85430BC4B1B681A0E93096B
:101F60000B70C2F383034B7002F003038B70B74B0B
:101F70001B68C3F30742CA70B44B1B88C3F3072224
:101F80000A71B24B1A784A715B681A0E1301CB8042
:101F9000AE4B5B68C3F30742CB8843EA1213CB8096
:101FA00002F00F030B72A94B9B88C3F30722D309DE
:101FB0004B72C2F380138B72C2F34013CB72C2F325
:101FC00000130B7300234B739E4B1B783BB19D4B4F
:101FD0001B78012B03D09B4B1B78032B4FD193070E
:101FE0001B0D0B61994B1A790B6943EA82030B6154
:101FF000964B9B681A0E0B6943EA92130B61C2F36E
:10200000C2030B7502F007034B75904B9B68C3F33B
:10201000074253098B75C2F38203CB7593075B0F9D
:102020000B768A4B1B89C3F307220B7E43EAD2133C
:102030000B760B695B1C0024C1E912340B7E9B1CE0
:10204000012404FA03F3DC17D1E91256A5FB037C43
:1020500006FB03C305FB0433C1E912730C7A0123A9
:10206000A3400B650024D1E912650B6DA6FB037C30
:1020700005FB03C306FB0433C1E912732EE0714B69
:102080001B78022B2AD1714B1A7993069B0A0B619C
:102090006E4B9B681A0E0B6943EA02230B616B4B74
:1020A0009B68C3F307420B6913430B61674B1B89A2
:1020B000C3F307220B695B1C4FF40074A3FB0446B7
:1020C0004FF480630025A4FB037C06FB03C304FBE1
:1020D0000533C1E912734FF400730B65C2F380132B
:1020E00001F8193F93065B0E4B70584B1A7A4B78E8
:1020F00043EAD2134B7002F07F038B70534BDB68C3
:102100001A0ED309CB70C2F341130B71C2F38203D1
:102110004B7193071B0F8B714C4BDB68C3F307426A
:102120008B7943EA92138B71C2F34013CB71002376
:102130000B7202F001034B72444B9B89C3F30722DD
:10214000D3098B72C2F38013CB72C2F340130B73AB
:10215000C2F300134B73C2F381038B7302F00303CA
:10216000CB733A4B1A7B53080B7401234B74384BD7
:102170001B681A0ECA741939354B1B68C3F3074222
:102180001402CC85324B1B88C3F30722CB8D13433B
:10219000CB852F4B1A7814060C635B681A0E0B6BF9
:1021A00043EA02440C632A4B5B68C3F307420B6BA0
:1021B00043EA02240C63264B9B88C3F307220B6B74
:1021C00013430B63224B1A7934235A54204B9B68D8
:1021D0001A0E35235A541E4B9B68C3F3074214064C
:1021E0008C631B4B1B89C3F307228B6B43EA0244AE
:1021F0008C63174B1A7A8B6B43EA02248C63144B63
:10220000DB681A0E8B6B13438B63114BDB68C3F3D4
:1022100007423C235B5C43EA12143C235C541307E3
:102220001C0DCC870A4B9B89C3F30722CB8F13432A
:10223000CB87074B1A7B540840235C54012441236D
:102240005C54F0BD4000002044000020DC0700206A
:10225000EC0700207CB50025002401213020FFF789
:102260008BFC012140F20240FFF776FC4FF4F8505E
:10227000ADF8000018208DF8030003208DF802004F
:1022800069463048FEF7DEFF0420ADF80000182054
:102290008DF8030003208DF8020069462A48FEF7F6
:1022A000D1FF8020ADF8000048208DF80300032006
:1022B0008DF8020069462448FEF7C4FFFFF76AFD67
:1022C00031208DF8040000208DF805008DF80600FF
:1022D00001208DF8070001A8FFF796F900F0E4F857
:1022E000044614B900F036F804461CB91748FFF745
:1022F00027FE044634B91549B1F85410080400F01B
:10230000B7FC04461CB90120FFF7E6FD04461CB1EA
:102310000F480078032812D10C4890F8560020B1DD
:102320000A4890F85600012801D1162500E0102532
:102330002846FFF707FD002000F0B2FC04462046C7
:102340007CBD000000100140001401400008002086
:102350004000002038B5002401200090FFF738FD30
:1023600008B9252038BD4A480078042821D000202B
:102370004849086002204860C02088600020C8608A
:102380004FF4806008610846FFF748FDFEF730F91A
:1023900004460CB12046E5E73F4840693F490860E4
:1023A0003D48806948603C48C06988603A48006A96
:1023B000C8603748007858B135480078012807D000
:1023C00033480078062803D031480078022816D117
:1023D00000203049086003204860402088600020C9
:1023E000C8604FF4806008610846FFF717FD694632
:1023F0000320FEF743F904460CB12046B2E7244817
:102400000078032816D1BDF80000000421490860B7
:1024100003204860402088600020C8604FF480603E
:1024200008610846FFF7FAFCFEF7E2F804460CB133
:10243000204697E716480078042827D0BDF800000A
:1024400017490860BDF8000000041249086009201F
:102450004860C02088600020C8604FF48060086138
:102460000846FFF7DBFCFEF7C3F804460CB1204634
:1024700078E7094840690B49086007488069486067
:102480000548C06988600448006AC860002069E7A0
:1024900040000020B007002000800140EC07002031
:1024A00044000020DC0700202DE9F047002700242D
:1024B00000260025A046A146B2206F4908750020DD
:1024C000086048608860C8604FF480400861084632
:1024D000FFF786FC0320FFF7B7FC0120FFF72CFC79
:1024E0004FF47A7002F06EF900BF12E000206349E9
:1024F000086048608860C8604FF4806008610846E2
:10250000FFF78CFCFEF72BF8044604B903E0781CB7
:10251000C7B24A2FEADB00BF14B12046BDE8F087FE
:102520004FF4D57055490860082048604020886005
:102530000020C8604FF4806008610846FFF76EFC19
:10254000FEF7E4F8044624B901204D4908704FF025
:102550008049002049490860372048604020886051
:102560000020C8604FF4806008610846FFF756FC01
:102570003720FEF70DF80446002C4BD134E0002044
:102580003E49086037204860402088600020C860CD
:102590004FF4806008610846FFF740FC3720FDF7E4
:1025A000F7FF04460CB12046B8E7364849EA000078
:1025B0003249086029204860402088600020C860B7
:1025C0004FF4806008610846FFF728FCFEF73AF8F0
:1025D00004460CB12046A1E72B484669012080EA59
:1025E000D67080F001086D1CB8F1000F03D14FF6D2
:1025F000FF708542C3D34FF6FF70854202D31B2480
:1026000020468BE706F08040061E32D002201C498F
:1026100008702EE01CE01D48184908600120486041
:10262000402088600020C8604FF480600861084640
:10263000FFF7F4FBFEF706F804460CB120466DE701
:1026400011484669012080EAD67080F001086D1CAF
:10265000B8F1000F03D14FF6FF708542DBD34FF680
:10266000FF70854202D31B24204657E7032004490C
:102670000870204652E7000098070020B0070020AD
:102680004000002000001080008001400080FF809A
:102690002DE9F84F8146174698460A9C4FF0000AEC
:1026A000D3464D464FF0FF36B9F1000F02D1262038
:1026B000BDE8F88F00208249C8628248007802286D
:1026C00005D10402780A40EAC8574FEA682800207A
:1026D0007D4988604860401E0860012048610020F4
:1026E000C86008610846FFF73DFB7548406900F087
:1026F000007008B10E20DBE7002C21DDB4F5006F7F
:102700001EDC601E2040D8B9204601F067FD009015
:102710006E48046010206D494860402088600020A9
:10272000C8604FF4806008610846FFF777FB10200F
:10273000FDF72EFF8246BAF1000F03D05046B7E7EF
:102740002620B5E7009800015F498860084644608C
:102750004FF0FF300860012048610220C86000206F
:1027600008610846FFF7FEFA5848076011205749EC
:102770004860402088600020C8604FF48060086195
:102780000846FFF74BFB1120FDF702FF8246BAF126
:10279000000F01D050468BE74D48007800285AD1F1
:1027A000FEF7DDFD18E04FF40040FFF705FB78B1C0
:1027B0004FF0000B06E042488030006845F82B00DF
:1027C0000BF1010BBBF1080FF5D32035414E03E0AF
:1027D0000EB904206CE7761E3948406B40F22A613E
:1027E00008400028DFD00820FFF7E6FA20B10820D3
:1027F000FFF79CFA04205BE70220FFF7DDFA20B127
:102800000220FFF793FA022052E72020FFF7D4FAC4
:1028100020B12020FFF78AFA062049E74FF4007024
:10282000FFF7CAFA28B14FF40070FFF77FFA0720CC
:102830003EE703E0FFF7ECFA28602D1D4FF400108F
:10284000FFF7BAFA0028F5D1FEF78BFD40F2FF50F2
:10285000FFF76CFA31E01E48007801282DD10022E4
:1028600021464846FFF704FB00201B4908701B491E
:1028700008701B4908701248C06B40F22A310843A7
:102880000F49C8630120FFF767FA00E0761E15487C
:10289000006800F4005038B91148007820B90E489B
:1028A000007808B9002EF1D10EB9042000E70A48DB
:1028B000007810B1084890F800A05046F8E60000F3
:1028C0000080014040000020C4070020B007002025
:1028D00048000020FFFF7F004A0000204900002040
:1028E0004B000020000402402DE9FE4F83460E46B7
:1028F000914600200290002534462148007818B106
:10290000680240EAD45564020BF00300F0B14FF0C6
:10291000000A18E04FF4007000904FEA4A200719AF
:1029200045EBE0733A461748FFF7B2FE02904FF4CA
:10293000007214495846FDF7C3FC0BF5007B0AF101
:10294000010000F0FF0ACA45E4DB16E0B9F1010F0F
:1029500009D14FF4007022462B4600905846FFF7ED
:1029600097FE029009E04FF4007022462B46CDE915
:102970000009584600F008F802900298BDE8FE8F62
:1029800040000020580800202DE9FF5F17469846B8
:10299000DDE90E464FF00009CA464FF0FF35A94960
:1029A000009808600020A849C862A848007802285A
:1029B00005D10402780A40EAC8574FEA6828002087
:1029C000A34988604860401E0860012048610020DB
:1029D000C86008610846FFF7C5F99B48406900F0E8
:1029E000007018B10E2004B0BDE8F09F002C21DD6E
:1029F000B4F5006F1EDC601E2040D8B9204601F0FF
:102A0000EDFB8346934804601020924948604020C3
:102A100088600020C8604FF4806008610846FFF7B6
:102A2000FDF91020FDF7B4FD8146B9F1000F03D088
:102A30004846D8E72620D6E7012E70D906FB04F0D9
:102A4000B0F1007F01D32620CDE74FEA0B1080497B
:102A5000886006FB04F048604FF0FF3008600120FA
:102A600048610220C860002008610846FFF77AF933
:102A7000784807601220774948604020886000202D
:102A8000C8604FF4806008610846FFF7C7F912205C
:102A9000FDF77EFD8146B9F1000F01D04846A2E75F
:102AA0006D48007800287DD1FEF759FC1EE04FF4F8
:102AB0000040FFF781F9A8B14FF0000A08E0624832
:102AC000803000685F49096841F82A000AF1010A6C
:102AD000BAF1080FF3D35B48006820305949086009
:102AE0005E4D03E00DB904207DE76D1E5648406B36
:102AF00040F22A3108400028D9D00820FFF75CF9BD
:102B000020B10820FFF712F904206CE70220FFF73C
:102B100053F928B10220FFF709F9022063E78EE09C
:102B20002020FFF749F920B12020FFF7FFF8062009
:102B300059E74FF40070FFF73FF928B14FF40070E8
:102B4000FFF7F4F807204EE709E0FFF761F93D4988
:102B5000096808603B480068001D3A4908604FF466
:102B60000010FFF729F90028EFD14FF48070FFF72C
:102B700023F920B33548007838B13448007801286B
:102B800003D032480078022819D10020314908606A
:102B90000C204860402088600020C8604FF48060AE
:102BA000086100E012E00846FFF738F90C20FDF755
:102BB000EFFC8146B9F1000F01D0484613E7FEF75C
:102BC000D0FB40F2FF50FFF7B1F838E02248007820
:102BD000012834D106FB04F100220098FFF748F9E0
:102BE00000201F49087001201E49087000201E495E
:102BF00008701548C06B40F22A3108431249C86377
:102C00000846C06A40F00800C86200E06D1E174820
:102C1000006800F4005008B9002DF7D10DB9042068
:102C2000E1E600BF1048007818B90D480078002888
:102C3000F8D00B48007810B1094890F80090484649
:102C4000D1E600004C000020008001404000002040
:102C5000C4070020B007002048000020FFFF7F00CD
:102C60004A000020490000204B00002000040240E0
:102C700010B5044609480460072008494860402010
:102C800088600020C8604FF4806008610846FFF744
:102C9000C5F80720FDF77CFC10BD0000B007002040
:102CA00001460020012900D011B9024B197000E043
:102CB00026207047480000202DE9FF5F86B01746A8
:102CC0009846149D0026002005900490002481461B
:102CD0000390824602900195DDF818B0DDF818B037
:102CE000BBF1000F03D126200AB0BDE8F09F002001
:102CF000C449C862C44988604860401E0860012019
:102D000048610020C86008610846FFF72BF8BD48FD
:102D1000406900F0007008B10E20E5E7BB4800787C
:102D2000022805D10502780A40EAC8574FEA682808
:102D3000002D1FDDB5F5006F1CDC681E2840C8B9EA
:102D4000284601F04BFA0590B14805601020B049C3
:102D50004860402088600020C8604FF480600861AF
:102D60000846FFF75BF81020FDF712FC06461EB17F
:102D70003046B9E72620B7E7A64800880004A449F2
:102D800008600D204860402088600020C8604FF433
:102D9000806008610846FFF741F80D20FDF7F8FB59
:102DA00006460EB130469FE79648406903904FF0C3
:102DB000FF341BE0641E97480088000494490860B3
:102DC0000D204860402088600020C8604FF480607B
:102DD00008610846FFF722F80D20FDF7D9FB0646EB
:102DE0000EB1304680E7874840690390039800F4AD
:102DF000807008B9002CDDD10CB9292074E7844813
:102E00000760182082494860402088600020C86020
:102E10004FF4806008610846FFF700F81820FDF7BE
:102E2000B7FB06460EB130465EE700207A490870CF
:102E30000598000174498860084645604FF0FF30EE
:102E40000860012048610020C86008610846FEF75C
:102E500089FF4FF0FF347148007800287BD1FEF7DE
:102E60007EFA43E04FF48040FEF7A6FFC8B3019816
:102E7000A0EB0900202821D20198A0EB090000F066
:102E8000030020B90198A0EB0900800804E0019834
:102E9000A0EB09008008401C02904FF0000A09E0F6
:102EA000DBF80000FEF7DEFF0AF1010A0BF1040B6C
:102EB00009F1040902988245F2D30FE04FF0000AAD
:102EC00005E05BF82A00FEF7CDFF0AF1010ABAF12E
:102ED000080FF6D30BF1200B09F120096FF04044E5
:102EE00004E0FFE70CB90420FEE6641E4548406B91
:102EF00040F21A6108400028B4D00820FEF75CFFB9
:102F000020B10820FEF712FF0420EDE60220FEF7B4
:102F100053FF20B10220FEF709FF0220E4E6102053
:102F2000FEF74AFF20B11020FEF700FF0520DBE688
:102F30004FF40070FEF740FF30B14FF40070FEF721
:102F4000F5FE0720D0E606E0FEF70BFA40F2FF5050
:102F50002C4988633EE03148007801283AD110229C
:102F600029460698FEF784FF00202D4908702A495B
:102F700008702C4908702348C06B40F21A3108438E
:102F80002049C8630846C06A40F00800C86200E0F3
:102F9000641E2548006800F4005008B9002CF7D1E1
:102FA0001CB9FFF757F904209EE64FF0FF3400E00C
:102FB000641E1C48007820B91948007808B9002C14
:102FC000F6D10CB904208FE61548007810B11448EA
:102FD000007889E640F2FF50FEF7A8FE04A8FEF74D
:102FE000D1F9064603E004A8FEF7CCF906463EB93F
:102FF0009DF810000728F6D09DF810000628F2D0A2
:10300000304671E600800140C407002040000020E7
:10301000B0070020440000204900002048000020A4
:103020004A0000204B000020000402402DE9FE4F22
:103030000646894692460020029000254C462148CB
:10304000007818B1680240EAD455640206F0030023
:10305000F0B14FF0000B18E04FF4007231461A48FF
:10306000FDF72EF94FF4007000904FEA4B2007193E
:1030700045EBE0733A461448FFF71EFE029006F552
:1030800000760BF1010000F0FF0BD345E4DB16E006
:10309000BAF1010F09D14FF4007022462B4600907F
:1030A0003046FFF709FE029009E04FF40070224617
:1030B0002B46CDE9000A304600F008F8029002984D
:1030C000BDE8FE8F40000020580800202DE9FF5F7A
:1030D00084B0DDE91247002600200390029000250D
:1030E00080468146019007FB04FBDDF810A0DDF867
:1030F00010A0BAF1000F03D1262008B0BDE8F09F60
:103100000020D849C862D84988604860401E0860DD
:10311000012048610020C86008610846FEF722FED1
:10312000D048406900F0007008B10E20E5E7CF48B4
:103130000078022808D10402DDE90601400A40EACD
:10314000C1504912CDE90601002C1FDDB4F5006F16
:103150001CDC601E2040C8B9204601F03FF80390F7
:10316000C34804601020C2494860402088600020A5
:10317000C8604FF4806008610846FEF74FFE1020DB
:10318000FDF706FA06461EB13046B6E72620B4E73C
:10319000012F6FD907FB04F0B0F1007F01D3262087
:1031A000ABE7B248007838B1B0480078012803D0C6
:1031B000AE48007802282DD1AE4800880004AC4902
:1031C000086037204860402088600020C8604FF4C5
:1031D000806008610846FEF721FE3720FDF7D8F928
:1031E00006460EB1304688E7A14807601720A0497F
:1031F0004860402088600020C8604FF4806008610B
:103200000846FEF70BFE1720FDF7C2F906460EB181
:10321000304672E7964906980860192048604020B9
:1032200088600020C8604FF4806008610846FEF79F
:10323000F5FD1920FDF7ACF906460EB130465CE706
:10324000039800018849886007FB04F048604FF04C
:10325000FF300860012048610020C860086108460E
:10326000FEF780FD84480078002871D1451EFEF7E6
:1032700076F840E0DEE07B48406B00F48040A8B385
:10328000ABEB080020281ED2ABEB080000F00300D7
:1032900018B9ABEB0800800803E0ABEB080080082E
:1032A000401C01904FF0000909E0DAF80000FEF739
:1032B000D9FD09F101090AF1040A08F1040801988D
:1032C0008145F2D30FE04FF0000905E05AF82900DC
:1032D000FEF7C8FD09F10109B9F1080FF6D30AF1AB
:1032E000200A08F120086FF0404504E0FFE70DB91F
:1032F000042002E76D1E5B48406B40F21A31084023
:103300000028B8D00820FEF757FD20B10820FEF7AE
:103310000DFD0420F1E60220FEF74EFD20B1022053
:10332000FEF704FD0220E8E61020FEF745FD20B17F
:103330001020FEF7FBFC0520DFE64FF40070FEF7DF
:103340003BFD30B14FF40070FEF7F0FC0720D4E6EF
:103350002CE04FF48070FEF72FFD00B34348007857
:1033600038B142480078012803D04048007802284C
:1033700015D100203E4908600C204860402088603C
:103380000020C8604FF4806008610846FEF746FDE3
:103390000C20FDF7FDF806460EB13046ADE6FDF710
:1033A000E0FF40F2FF50FEF7C1FC43E032480078F6
:1033B00001283FD107FB04F110220498FEF758FDC5
:1033C00000202E49087001202D49087000202D4949
:1033D00008702448C06B40F21A3108432149C86381
:1033E0000846C06A40F00800C8624FF0FF3500E0B0
:1033F0006D1E2548006800F4005008B9002DF7D173
:103400001DB9FEF727FF042077E64FF0FF3500E0F7
:103410006D1E1C48007820B91848007808B9002DA6
:10342000F6D10DB9042068E61448007810B11348AD
:10343000007862E640F2FF50FEF778FC02A8FDF744
:10344000A1FF064603E002A8FDF79CFF06463EB931
:103450009DF808000728F6D09DF808000628F2D04D
:1034600030464AE600800140C407002040000020AA
:10347000B007002044000020480000204A0000203F
:10348000490000204B00002000040240704770B546
:1034900005460E460C20FEF705FA04460CB900203E
:1034A00070BD256066602046FAE770B504460D469B
:1034B0000CB9002070BD681C60B900BF20680028EE
:1034C000FCD0FEF7A5F92068401E2060FEF7B0F999
:1034D0000120EFE715B12846FEF782FA206840B1D7
:1034E000FEF796F92068401E2060FEF7A1F9012042
:1034F000E0E70020DEE710B504460CB9002010BD5F
:10350000FEF786F92068401C2060D4E9000188425B
:1035100001D960682060FEF78BF90120EFE710B554
:1035200000F002F810BD00000CB5002001900090E2
:103530003348006840F480303149086000BF3048AB
:10354000006800F4003000900198401C0190009841
:1035500018B90198B0F5A06FF1D12948006800F4BE
:10356000003010B10120009001E000200090009890
:10357000012843D12348006840F010002149086029
:103580000846006820F0030008600846006840F024
:10359000020008601A4840681949486008464068B7
:1035A00048600846406840F48060486008464068CB
:1035B00020F47C1048600846406840F4E8104860F9
:1035C0000846006840F08070086000BF0C48006842
:1035D00000F000700028F9D00948406820F003008E
:1035E000074948600846406840F00200486000BF54
:1035F0000348406800F00C000828F9D10CBD000019
:10360000001002400020024010B5FEF799F910BDED
:1036100010B51348006840F00100114908600846E1
:103620004068104908400E494860084600680E4945
:1036300008400B4908600846006820F480200860B4
:103640000846406820F4FE0048604FF41F00886080
:10365000FFF765FF4FF000600449086010BD0000EF
:10366000001002400000FFF8FFFFF6FE08ED00E04A
:1036700010B50121064800F012F840B101210448BC
:1036800000F00AF803480068401C0249086010BDB9
:10369000000400403C000020CA430282704730B55D
:1036A0000246002000230024158A05EA01039589BB
:1036B00005EA010413B10CB1012000E0002030BD87
:1036C00010B5044600BF4FF4807306220021034862
:1036D000FEF790F80249086010BD0000ED6B00088D
:1036E0002000002070B50546FEF792F8A868286013
:1036F000E86928610020E860012085F825002C6831
:1037000000062060201F0446296A01602449201F0A
:10371000044601604FF01231201F044601604FF053
:103720000331201F044601604FF00231201F044680
:1037300001604910201F044601600021201F04463B
:1037400001604FF01131201F044601604FF010312D
:10375000201F044601604FF00931201F044601601C
:103760004FF00831201F044601604FF00731201F41
:10377000044601604FF00631201F044601604FF0FF
:103780000531201F044601604FF00431201F04461C
:1037900001602C60FEF74CF8FCF7F2FC70BD0000F5
:1037A000011A000810B540F22551044800F014F841
:1037B00018B1024800F0CCF8C4B210BD0038014086
:1037C00021B1828942F40052828104E082894DF65F
:1037D000FF731A408281704770B5024600240023AF
:1037E0000025002040F66A16B14200D100BFC1F3A7
:1037F000421501F01F03012606FA03F3012D02D141
:103800009689334006E0022D02D1168A334001E04A
:10381000968A33400C12012606FA04F416883440C6
:1038200013B10CB1012000E0002070BDF0B50346DB
:10383000002400260025002040F66A17B94200D176
:1038400000BF1846C1F3421401F01F06012707FA12
:1038500006F5012C01D10C3004E0022C01D110300E
:1038600000E014301AB107682F43076002E00768D0
:10387000AF430760F0BD00002DE9F04786B0054674
:103880000E460024A24600BFA1460027B08900B121
:1038900000BF2F462C8A4CF6FF700440F08804438A
:1038A0002C82AC894EF6F3100440B088318908436D
:1038B000718908430443AC81AC8A4FF6FF40044051
:1038C000B0890443AC8201A8FEF766F91F4887421D
:1038D00002D1DDF810A001E0DDF80CA0A88900F409
:1038E000004040B10AEBCA0000EB0A103168490001
:1038F000B0FBF1F807E00AEBCA0000EB0A103168F0
:103900008900B0FBF1F86420B8FBF0F00401200955
:10391000642101FB1089A88900F4004040B13220E5
:1039200000EBC900B0FBF1F000F00700044308E031
:10393000322000EB09106421B0FBF1F000F00F0021
:1039400004432C8106B0BDE8F08700000038014038
:1039500001468888C0F30800704700BFFEE70000FA
:103960000FB4054B10B503A9044A029800F08CF877
:1039700010BC5DF814FB00007975000850000020B1
:1039800002E008C8121F08C1002AFAD17047704728
:10399000002001E001C1121F002AFBD17047000086
:1039A00070B5024602B970BD0A4D541BE008B0F56F
:1039B000706F00D9F7E7084D35F81030014604E084
:1039C0000025054E26F81150491C1D188D42F7D8C8
:1039D00000BFE8E7580A0020588200202DE9F05F78
:1039E00007464FF00008C2463846FCF714FD8346F0
:1039F0004FF08241FCF7D1FC8146FD082846FCF7D8
:103A00000AFD83464946FCF70BFD00D26D1C0024DD
:103A100012E01B4830F8140040B908F10108A8452D
:103A200002D14FF0010A0AE0641C05E04FF00008E3
:103A3000134830F814000444B4F5706FE9D300BFA4
:103A4000BAF1010F02D1B4F5706F02D30020BDE8C6
:103A5000F09F681E241A26460AE0A64203D10849B0
:103A600021F8145003E00120054921F81600761CC6
:103A70006019B042F1D80348082101FB0400E6E7D1
:103A800058820020580A00202DE9FF4F8DB00F46C4
:103A90000546002606E025280BD0DDE90F129047E9
:103AA0006D1C761C28780028F5D111B03046BDE891
:103AB000F08F0024A246A1460122EC4900E0044315
:103AC00015F8013F203B02FA03F00842F7D12878AD
:103AD0002A2810D06FF02F022878A0F13001092990
:103AE00014D80AEB8A0102EB410144F0020400EB16
:103AF000010A6D1CF0E701CF5FEA000A03D544F428
:103B00000054CAF1000A44F002046D1C28782E28E3
:103B100017D115F8010F44F004042A280ED06FF0D5
:103B20002F022878A0F1300109290AD809EB890170
:103B300002EB410100EB01096D1CF2E757F8049B11
:103B40006D1C28786C280FD006DC4C2817D068280C
:103B50000DD06A2814D104E0742810D07A280FD12F
:103B60000DE044F400140AE044F4801401E044F44D
:103B700040146978814202D104F580146D1C6D1CDB
:103B80002A786E2A1FD00CDC632A31D004DC002A8C
:103B90008BD0582A11D1A3E0642A68D0692A0CD1AD
:103BA00065E0732A2ED004DC6F2A73D0702A04D10A
:103BB0009BE0752A6FD0782A6ED01046DDE90F128F
:103BC0009047761C50E1C4F30250022806D0032827
:103BD00009D0042801CF09D0066045E101CFF117D3
:103BE000C0E9006140E101CF06803DE106703BE1A4
:103BF00017F8040B8DF8000000208DF80100EB464B
:103C0000012003E057F804BB4FF0FF3061074FF08D
:103C1000000102D40DE008F10101884649450FDAA0
:103C20008045F8DB1BF808100029F4D108E008F102
:103C3000010188468142FADB1BF808100029F6D101
:103C4000DDE90F23AAEB08008146214600F036F992
:103C5000304400EB080604E0DDE90F121BF8010B0D
:103C60009047B8F10108F7D221464846F7E00A210B
:103C7000C4F302534FF0000B0891022B04D001CF84
:103C8000C117032B09D00AE0FF1D27F00707F7E84B
:103C9000020108E032E01FE020E000B2C117042B6F
:103CA00001D140B2C117031E71F1000307DA4FF0D2
:103CB000000CD0EB0C006CEB01012D2302E023057E
:103CC00004D52B238DF82430012303E0E30701D032
:103CD0002023F7E7984658E00A2110E010210EE073
:103CE00010204FF0000B08900CE010214FF0000B5B
:103CF00044F004044FF00809089103E008214FF054
:103D0000000B0891C4F30253022B04D001CF002111
:103D1000032B06D006E0FF1D27F00707F7E8020196
:103D200003E080B2042B00D1C0B24FF0000823079B
:103D30002BD5702A07D0DDF820C08CF0100C5CEA7F
:103D40000B0C05D00EE040238DF82430012308E051
:103D500050EA010306D030238DF824308DF8252059
:103D600002239846DDF820C08CF0080C5CEA0B0CAE
:103D70000BD150EA010301D1630706D530238DF83A
:103D800024304FF00108A9F10109582A04D038A2C3
:103D90000B9208AA0A920BE03AA2F9E75B46089A4E
:103DA000FCF726FA0B9B9B5C0A9A521E0A92137030
:103DB00050EA0102F2D10A98ADEB000000F1200BAD
:103DC000600702D524F4803401E04FF00109D945A1
:103DD00002DDA9EB0B0000E0002000EB0B014144E9
:103DE0000890AAEB010AE00306D4DDE90F2321467F
:103DF000504600F063F806444FF0000908E009A9B6
:103E000011F80900DDE90F12904709F10109761C4C
:103E1000C145F4DBE0030CD5DDE90F232146504614
:103E200000F04CF8064404E0DDE90F123020904722
:103E3000761C0899481E08900029F5DC08E00A98CD
:103E40000A990078491C0A91DDE90F129047761C07
:103E5000BBF10001ABF1010BF1DC21465046DDE97D
:103E60000F2300F019F806446D1C1BE60928010019
:103E700030313233343536373839616263646566E0
:103E800000000000303132333435363738394142A2
:103E900043444546000000002DE9F041044600255A
:103EA0001E461746880404D405E039462020B04752
:103EB0006D1C641EF9D52846BDE8F0812DE9F0415E
:103EC000044600251E469046C80301D5302700E071
:103ED0002027880404D505E041463846B0476D1CCC
:103EE000641EF9D52846BDE8F0812DE9F047044667
:103EF0000D4690469946AD1EA06C00EB153AC5F3F1
:103F0000C80605F0070101208840C7B200BF51462E
:103F10000AF1010A204605F083FF10B10120BDE837
:103F2000F08700BF00BF04F15000805D384008B149
:103F3000012000E00020484501D10220EFE704F114
:103F40005000805D784004F1500188550120E070F8
:103F5000A8F10100B0F1000800D1E0E77806000EFA
:103F6000071EE0D10127701C0646B0F5007FD9D3AB
:103F70000026CCE770B504460D460020E070401ED8
:103F8000E0642946204605F04BFF08B1042070BDCF
:103F900004F24E2005F096F94AF65521884201D0E8
:103FA0000320F4E70B2214A104F1500005F0CCFC2F
:103FB00008B90120EBE794F85000E92807D094F8FD
:103FC0005000EB2803D094F85000E82811D10322C8
:103FD0000CA104F1860005F0B7FC08B90020D6E773
:103FE000052209A104F1A20005F0AEFC08B90020E9
:103FF000CDE70220CBE70000EB76904558464154D0
:104000002020200046415400464154333200000035
:10401000024600E0521C107810B110788842F9D1A5
:104020001078704730B502460B46002400211CE092
:104030001A4800EB01100068A8B1184800EB011005
:1040400000681568A8420FD1144800EB01104068C1
:104050009568A84208D1114800EB01108068156BE3
:10406000A84201D103E00124491C0A29E0D300BF82
:104070000A2906D11CB9022B01D0122030BD002024
:10408000FCE733B9054800EB01108089B0F5807F6B
:1040900001D11020F2E70020F0E7000098F60020A0
:1040A000014600200BE0074A02EB001212688A4228
:1040B00004D10022034B03EB00131A60401C0A28B2
:1040C000F1D3704798F600202DE9F84F8246154647
:1040D0001E46DAF800000090DAF8500000F10409FA
:1040E0004FF40072002328463146FCF781F807465A
:1040F0000098B0F80AC0624600233846FCF778F80A
:10410000834600BF59F8044B14B90020BDE8F88F6E
:10411000A34500D204E0ABEB040B09F10409F1E77D
:1041200000BFD9F800005844F0E70246891E106B22
:10413000801E884201D8002070475389506C03FBD1
:104140000100F9E72DE9F04780460C4604F11A001A
:1041500005F0B8F810B10020BDE8F087207800F035
:104160003F00401E00EB800101EBC0054FF001094C
:10417000002621E01849895D081905F0A3F80746D3
:10418000B9F1000F11D0FF2D0BD2384602F0FEFD21
:10419000824629466D1C38F8110002F0F7FD824571
:1041A00001D00020D8E7B94605E04FF6FF708742FE
:1041B00001D00020D0E7761C0D2EDBD3207800F054
:1041C000400038B1B9F1000F04D038F8150008B13B
:1041D0000020C1E70120BFE73C03010801460020A1
:1041E00002E04910421CD0B20129FAD170472DE9F2
:1041F000F04706468A463468BAF1000F0AD1D4F86F
:104200001880B8F1000F02D0206B404516D84FF04F
:10421000010813E05146304603F05EFA0746022FCC
:1042200002D20120BDE8F087781C08B93846F9E7CA
:10423000206BB84201D93846F4E7D046E06908B9A6
:104240000020EFE7207804284ED101224146204685
:1042500002F031FE05460DB1681C08B92846E1E7B9
:1042600001231A4629462046FFF73FFE8146B9F151
:10427000020F01D10120D5E7B9F1010F02D14FF0B2
:10428000FF30CFE7BAF1000F02D10220F0710CE04D
:10429000F079022809D108F10100854205D0B06803
:1042A000A8EB0000B0610320F071F079022869D01A
:1042B0000AF10100854207D1F06910B1F069401C94
:1042C00000E00220F0615DE0F06908B90120F061D2
:1042D0002A465146304602F0CCFD8146B9F1000F26
:1042E00050D10120F0614DE00025D04519D108F1F1
:1042F0000105206BA84200D802252946304603F06C
:10430000EBF90746012F01D0781C08B9384689E738
:104310003FB1A769022F03D3206BB84200D9B8463A
:104320000025E5B9454600BF6D1C206BA84204D8A6
:104330000225454501D9002074E72946304603F09F
:10434000CBF9074607B909E0012F01D0781C08B95D
:10435000384667E74545E7D1002063E700BF4FF0E7
:10436000FF322946204606F035FB8146B9F1000FA1
:1043700008D1BAF1000F05D02A465146204606F072
:1043800029FB8146B9F1000F0DD1A561206B801E7C
:10439000E169814202D8E069401EE061207940F085
:1043A0000100207107E0B9F1010F02D14FF0FF3099
:1043B00000E001200546284634E700002DE9F34FD0
:1043C00085B08146069800680290D9F80000C76859
:1043D000002500BF02A806F0D1FE04900498401CFE
:1043E00018B9062007B0BDE8F08F0498B0F5803FFB
:1043F00005D30498020C28466D1C27F81020049859
:1044000084B2202C03DB2F2C01D05C2C00D111E0D6
:10441000802C06DA214691A0FFF7FAFD08B10620AC
:10442000E0E7FF2D01D30620DCE728466D1C27F8C6
:104430001040CFE700BF02E00298401C02900298B3
:1044400000782F28F8D0029800785C28F4D00299E0
:1044500006980160202C01DA042000E000200646C6
:10446000012D04D1681E37F810002E280BD0022D24
:1044700024D1681E37F810002E281FD1A81E37F847
:1044800010002E281AD1002027F8150080460AE0D7
:10449000A84501D22E2100E0202109F1400000F8BA
:1044A000081008F10108B8F10B0FF1D346F0200114
:1044B00009F1400000F80810002093E708E0681EAA
:1044C00037F81040202C02D02E2C00D002E06D1EB8
:1044D000002DF4D100BF002027F815000DB90620EB
:1044E00080E74FF0000A01E00AF1010A37F81A00EC
:1044F0002028F9D0BAF1000F03D137F81A002E287E
:1045000001D146F0030600E06D1E25B1681E37F8A4
:1045100010002E28F8D10B22202109F1400005F0CF
:1045200085FB4FF00008C3460820039000BF5046AB
:104530000AF1010A37F8104004B964E0202C03D0D6
:104540002E2C04D1AA4502D046F00306EFE70398CB
:10455000804501D2AA4516D103980B2802D146F016
:10456000030650E0AA4501D046F00306AA4500D94B
:1045700049E0AA464FF008080B2003904FEA8B60F1
:104580004FEA106BD3E7802C0ADB46F00206204688
:1045900002F0FCFB4FF46A71019002F0BDFB04468F
:1045A000FF2C10DD0398401E404504D846F003065A
:1045B000DDF80C80BBE72212404608F1010809F142
:1045C00040010A5418E024B1214627A0FFF720FD3E
:1045D00018B15F2446F003060EE0412C03DB5A2C91
:1045E00001DC4BF0020B612C06DB7A2C04DC4BF077
:1045F000010BA4F1200084B2404608F1010809F142
:1046000040010C5493E700BF99F84000E52802D11F
:10461000052089F840000398082803D14FEA8B60F1
:104620004FEA106B0BF00C000C2803D00BF00300CA
:10463000032801D146F0020606F0020048B90BF04B
:10464000010008B146F010060BF0040008B146F076
:1046500008064B2000F809600020C3E6222A3A3CF5
:104660003E3F7C7F000000002B2C3B3D5B5D00004B
:104670002DE9F04704460E4640220021204605F071
:10468000D5FA85202070C02084F820004025002025
:10469000804607464FF0010900BFC12228466D1C25
:1046A0002254002228466D1C225400BFB9F1000F8D
:1046B00006D036F81700B0F1000901D0781CC7B257
:1046C0006019494606F059FBAD1C05F01F00002893
:1046D000ECD108F1010000F0FF0836F817000028BF
:1046E000DBD184F8237008F10100607030460AF0D5
:1046F00099FE8246514604F1240006F03EFBBDE8D7
:10470000F087000001460B48007888420FDC09481A
:104710004078884201DB0120704706488078884253
:1047200005DC0448C078884201DB0120F4E7002062
:10473000F2E7000049030108014610480079884269
:1047400019DC0E484079884201DB012070470B4894
:104750008079884205DC0948C079884201DB012064
:10476000F4E70648007A884205DC0448407A88422B
:1047700001DB0120EAE70020E8E700004903010827
:1047800010B50246531E1A460A2B17D20C4B03EBE8
:1047900002139989B1F5807F00D10021002901DD44
:1047A0004B1E99B2064B03EB0213998121B90023EA
:1047B000034C04EB02142360002000E0022010BD33
:1047C00098F6002010B504464FF47A7104FB01F00E
:1047D00000F001F810BD10B5044604EB4401880058
:1047E000FBF7B0FC10BD2DE9F04104460E46D4F8AD
:1047F00000800021204600F06EFB05465DBB0027CF
:1048000000BF4046A16B05F00BFB054605B121E05A
:1048100098F80000042805D1E06B0078012121EA16
:10482000D01009E0E06B0078E52802D0E06B00785A
:1048300008B9012000E0002020B1781C0746B042F2
:1048400001D107E000270121204600F041F905468B
:10485000002DD6D000BF042D00D107252846BDE885
:10486000F0812DE9F04704468946204606F01CFBFE
:1048700010B10120BDE8F08749462046FFF755FCFE
:104880000746E7644FF40072002104F1500005F080
:10489000CDF960894FF40041B1EB402F01D80846B3
:1048A00001E06089400206464FF0000800E076080B
:1048B000B6F5007F05D9304602F0DFF9B0F1000807
:1048C000F5D0B6F5007F17D932460021404605F0F5
:1048D000ADF9760A002500E035446089A84207D981
:1048E0007A1960783346414600F0BEFB0028F3D0C9
:1048F000404602F0C8F910E004F1500801260025F6
:1049000000E035446089A84207D97A1960783346B7
:10491000414600F0A9FB0028F3D06089A84201D0ED
:104920000120A7E70020A5E72DE9F04F85B0044658
:1049300025680021204600F0CEFA07461FB1384610
:1049400005B0BDE8F08F287804284CD1E8680AF05B
:1049500069FD01903EE0296901F1240004F0B2FCF8
:104960000199884200D035E0286990F8230003902F
:104970004FF0400A002002901FE00AF01F0008B923
:104980000AF1020A296901EB0A0004F09BFC00907D
:1049900002F0FCF98346EA68029932F8110002F04D
:1049A000F5F9834500D00BE00398401EC0B2039098
:1049B0000AF1020A0298401C029003980028DCD1F8
:1049C00000BF039828B9E968029831F8100000B9CF
:1049D00006E000BF0021204600F0EAF8071EBAD02A
:1049E00000BF3846ACE74FF0FF09CDF810904FF00C
:1049F000FF30E06400BF2846A16B05F011FA0746BE
:104A000007B162E0E06B06780EB904275DE0E06B69
:104A1000C07A00F03F0884F80680E52E05D008F043
:104A2000080040B1B8F10F0F05D04FF0FF094FF06B
:104A3000FF30E06442E0B8F10F0F22D14B20005D5F
:104A400000F04000A0BB06F0400038B1E06B407BB6
:104A5000049006F0BF06B146206BE0644E450CD1D1
:104A6000E06B417B0498814207D1E16BE868FFF776
:104A700069FB10B1A9F1010000E0FF2000F0FF097F
:104A80001CE0B9F1000F06D1E06B06F0B5F904990E
:104A9000884200D119E04B20005D00F0010040B9D0
:104AA0000B2204F14001E06B04F04EFF08B90CE06A
:104AB00004E04FF0FF094FF0FF30E0640021204692
:104AC00000F006F80746002F95D000BF384637E7BC
:104AD0002DE9F041044688462768206B00F1200646
:104AE0003878042801D1800601E04FF40010B0426C
:104AF00001D80020A063A06B10B90420BDE8F081AC
:104B0000C6F3080000284AD1A06B401CA063606B6C
:104B100038B93889B0EB561F41D80020A063042073
:104B2000ECE77889401E00EA5620002837D120465D
:104B3000616B02F0D1FD0546012D01D80220DDE7B1
:104B4000681C08B90120D9E7386BA84221D8B8F110
:104B5000000F03D10020A0630420CFE72046616B43
:104B6000FFF745FB05460DB90720C7E7012D01D129
:104B70000220C3E7681C08B90120BFE72946384670
:104B8000FFF76FFE08B10120B8E7E07940F00400BC
:104B9000E071656329463846FFF7C7FAA0632663CC
:104BA000C6F3080107F150000844E0630020A5E7C0
:104BB0002DE9F05F04468846042627684FF0FF0A77
:104BC000D3466CE03846A16B05F02AF9064606B1DB
:104BD00068E0E06B05780DB9042663E038780428B6
:104BE00014D1B8F1000F02D0832D51D15AE0852D98
:104BF0004ED1206BE064204604F08AFB064626B9BD
:104C00003869007900F03F00A0714BE0E06BC07A9A
:104C100000F03F0984F80690E52D0AD02E2D08D02B
:104C200029F02000082801D1012000E000204045A3
:104C300002D04FF0FF0A2BE0B9F10F0F1CD105F0A5
:104C4000400038B1E06B90F80DB005F0BF05AA4602
:104C5000206BE06455450BD1E06B407B584507D194
:104C6000E16BF86805F01CFE10B1AAF1010000E04C
:104C7000FF2000F0FF0A0BE0BAF1000F04D1E06B57
:104C800006F0BAF8584502D04FF0FF30E06409E072
:104C900000212046FFF71CFF064606B102E0A06B8C
:104CA00000288FD100BF0EB10020A0633046BDE8C0
:104CB000F09F2DE9F04F9BB0044626684B20005D25
:104CC00000F0A00018B106201BB0BDE8F08F4FF037
:104CD000000B01E00BF1010BF06830F81B0000281D
:104CE000F8D13078042866D10BF10E000F21B0FB0B
:104CF000F1F000F1020949462046FFF774FD054630
:104D00000DB12846E0E7A9F101002022216B02FB4A
:104D10001010E064E07900F00400002845D0E0794C
:104D200020F00400E071204602F088F805460DB13D
:104D30002846C9E74FF0FF322046616B02F099F830
:104D400005460DB12846BFE7A06870B32146684606
:104D500004F0BEFA05460DB12846B5E77089400259
:104D6000D4E90431181841F10001C4E90401D4E97F
:104D70000473316901F138003A4605F0D0FFD4E9F7
:104D80000473316901F128003A4605F0C8FFE07963
:104D900040F00100316981F82100684605F0F3FF19
:104DA00005460DB128468FE700BFD6E90310FFF78F
:104DB0005FFC002088E70C2204F1400117A804F0F2
:104DC000D5FD9DF8670000F0010028B340214B207D
:104DD00001554FF0010A0EE0534617A904F14000B7
:104DE000F26802F013FC2046FFF79EFD054605B170
:104DF00004E00AF1010ABAF1640FEDD300BFBAF181
:104E0000640F01D107205FE7042D01D028465BE73E
:104E10009DF867104B2001559DF8670000F00200D7
:104E200030B10BF10C000D21B0FBF1F0401C00E0A3
:104E30000120814649462046FFF7D5FC054675BB53
:104E4000A9F10100B0F1000929D0206BA0EB4911B4
:104E5000204600F040F805460DBB04F1400005F087
:104E6000CBFF169000BF3046A16B04F0D9FF05467A
:104E700005B113E009F0FF02E16BF068169B05F045
:104E80004BFE0120F07000212046FFF721FE054671
:104E900025B9A9F10100B0F10009E4D100BFC5B9FD
:104EA0003046A16B04F0BCFF054695B920220021D5
:104EB000E06B04F0BBFE0B2204F14001E06B04F058
:104EC00055FD4B20005D00F01800E16B08730120D8
:104ED000F0702846F8E62DE9F04104460D462668B4
:104EE0003078042801D1800601E04FF40010A84278
:104EF00002D905F01F0010B10220BDE8F081256342
:104F0000A7682FB93078032802DB376C0020E071E6
:104F100047B93089B0EB551F01D80220EDE7306C5E
:104F2000A0631CE070894FEA402811E03946204612
:104F300002F0D2FB0746781C08B90120DDE7022FFA
:104F400002D3306BB84201D80220D6E7A5EB0805A2
:104F50004545EBD239463046FFF7E7F8A063676373
:104F6000A06B08B90220C8E7A06B00EB5520A06336
:104F7000C5F3080106F150000844E0630020BCE7D7
:104F800070B5044600251CB9FDF764F9054601E03B
:104F9000012500BF00BF0DB1012070BD0020FCE75E
:104FA0002DE9F04706468946154646BBB9F1000F84
:104FB00009D0B9F1010F13D0B9F1020F05D0B9F141
:104FC000030F19D106E0002418E04FF40070288088
:104FD000002413E00C48B0F85000288000240DE0B5
:104FE00009484FF400720023D0E912713846FBF7EC
:104FF00030F92860002401E0042400BF00E001240F
:105000002046BDE8F0870000000800202DE9F041AF
:1050100005460E4617461C464FF0000814B90420FA
:10502000BDE8F08195B9E2B239463046FDF75CFC47
:10503000804607E0FDF70EF9E2B239463046FDF74B
:1050400053FC8046B8F1000FF4D102E04FF00108A4
:1050500000BF00BFB8F1000F01D10020E0E7012040
:10506000DEE70146002070472DE9F04105460E4677
:1050700017461C464FF0000814B90420BDE8F08123
:1050800095B9E2B239463046FDF7D0FF804607E0D9
:10509000FDF7E0F8E2B239463046FDF7C7FF80463B
:1050A000B8F1000FF4D102E04FF0010800BF00BFDB
:1050B000B8F1000F01D10020E0E70120DEE7000099
:1050C0000146002051B1CA7A521C022A06DACA7A75
:1050D000521C034B53F8222002B1012070470000FC
:1050E000A000002070B504460D460C4850F834006E
:1050F00078B10A4901EBC4014A6804EB0411084E77
:1051000006EB011101F10F00044951F83430294632
:1051100098470020014941F8340070BDD8A4002010
:1051200098A0002010B5002404E0204600F006F806
:10513000601CC4B2042CF8DB10BD000070B506463C
:1051400006EB06102E4901EB001400BF00BFA07A49
:1051500000284ED0012804D0022815D0032849D1B8
:105160003CE000F0D1F820810220A0720020E07223
:105170000120207300206073304600F019FA0546C4
:105180000DB100BF00BF38E0207B401EC0B22073CD
:1051900018BB607B401CC0B26073042814D1204649
:1051A000FFF78EFF38B1E07A401CE07201202073D7
:1051B000002060730AE000BF00BF00213046FFF707
:1051C00091FF0020A07218E0607B2073304600F051
:1051D000EFF905460DB100BF00BF0EE0206818B121
:1051E0002068401E206018B900BF00BF0020A072D8
:1051F00003E002E000BF00BF00BF00BF70BD0000C1
:1052000098A000202DE9F04706460F4690464446F8
:1052100000BF2146384605F02CFB0546002D03DB78
:105220004FF6FF70844203D14FF6FF70BDE8F08760
:10523000601C84B205F0C000C02802D14FF6FF7098
:10524000F4E721E02146384605F013FB8146B9F129
:10525000000F02DA4FF6FF70E8E73078FBF72AF824
:10526000824609F0FF00FBF725F8824502D04FF691
:10527000FF70DBE74FF6FF70844200D1D6E7601C79
:1052800084B2761C6D1E00BF002DDBDC761C21462F
:10529000384605F0EEFA0546002D02DA4FF6FF70AB
:1052A000C4E7002DB5D14FF6FF70844200D1BDE7B1
:1052B000601C80B2BAE7000070B505460E4605EBEB
:1052C00005100F4901EB00140320A07200BF00BFBE
:1052D00000BF00BF00BF00BF26600A4920688842A7
:1052E00001D908462060211D2846FFF7FBFE2068F3
:1052F00020B9A07A032801D10020A07270BD00005F
:1053000098A00020803A090000BF0E4A1288521C63
:1053100090B20C4A1080002111E001EB01120A4BFF
:1053200003EB0212927A022A07D101EB011203EB7E
:1053300002121289824200D1E7E74A1CD1B2042945
:10534000EBDB70479400002098A0002010B500BF50
:1053500000BF00BF00BF00BF00BF0C48006898B985
:105360002E2009F0AFFE0949086000BF00BF00BF52
:1053700000BF00220868064909F002FD0349002227
:105380000868044909F0D2FE10BD00009800002012
:1053900028F50008995300082DE9F04F89B0174609
:1053A0009A463889102802DA00BF00BFF7E00023D0
:1053B0000C2206A9384605F089F80C2872D1BDF8F0
:1053C000180004F00EFA81460025E4E005EB051014
:1053D000754901EB0016B07A02286FD13089484533
:1053E000FBD1BDF81C0004F0FCF98346BDF81E009B
:1053F00004F0F7F980469DF81A0000F0800010B91B
:1054000000BF00BFCBE0BBF1010F02D000BF00BF67
:10541000C5E0F17A654A52F82110DAF800008842B6
:1054200000D0BCE00C22394606F10F00FFF7EAFE7F
:1054300004464FF6FF718C4202D100BF00BFAEE0C0
:105440002346042202A9384605F040F8042800D07B
:10545000A5E0BDF80A00B0F5807F05D100BFBDF81A
:105460000800B0F5807F02D000BF00BF97E0201D8C
:10547000B0F5803F00DB92E0201D84B29DF81B0058
:1054800000F00F0078B100BF00BF3046FFF718FEF4
:1054900000286FD003207073012030732846FFF777
:1054A0004DFE7CE07AE05DE02146384600F042F9AE
:1054B00004464FF6FF70844201D170E069E0234654
:1054C0000A2203A9384605F001F80A2800D066E050
:1054D00004F10A00B0F5803F00DB60E004F10A004F
:1054E00084B2BDF80E00B0F5807F28D1BDF80C0065
:1054F000B0F5807F22D1BDF81400B0F5806F1DD1CA
:105500002346042201A9384604F0E0FF042800D015
:1055100045E005EB0511244A02EB011101984860B2
:10552000384605F013F8049804F04EF9014600904F
:105530002846FFF7C1FE09B0BDE8F08F00BFBDF8F7
:10554000140004F04EF92044B0F5803F00DB26E063
:10555000BDF8140004F045F9204484B2A8F101001C
:105560001FFA80F8B8F1000F02DD3889A0429BDCF9
:1055700000BF00BF384604F0E9FF00212846FFF7CE
:10558000B1FD002005EB0511074A02EB01118872FD
:10559000D1E7681CC5B2042DFFF618AF00BF38462E
:1055A00004F0D4FF00BFC6E798A00020A0000020B0
:1055B0002DE9F04F89B083460BEB0B10514901EBFD
:1055C000001600BF00BF00BF00BFF07A4E4951F87F
:1055D000200040B900215846FFF784FD0020B0723A
:1055E00009B0BDE8F08F06F10F00FAF7A5FE123002
:1055F00080B24FF4207201460290362004F0DBFDA9
:105600000746002F73D0002006900790089030893D
:1056100004F0E7F8ADF8180001208DF81A00000238
:10562000ADF81C000C2206A9384605F0A5F806F1D5
:105630000F04641E0C2500BF641CA0464FF0000937
:1056400004E009F1010000F0FF09641C20782E2815
:1056500002D020780028F4D1A4EB080080B2049096
:1056600005EB0900401CB0F5803F00DB43E04A46F3
:105670002946384604F0E0FF681C83B241463846AC
:10568000049A05F0B9F805EB0900401C85B22078B2
:105690000028D1D100222946384604F0CDFF681CED
:1056A00085B24FF48070ADF81400ADF816002B46AB
:1056B000042205A9384605F09FF80020039000BF9A
:1056C00000BF35200190F07A0F4901EB8000029075
:1056D0000E4A039952F821003946DDE9013209F0FA
:1056E0002DFD8246384604F031FF02E0FFE74FF01F
:1056F000FF3A504674E7384604F028FF6FF0050083
:105700006EE7000098A00020A00000209800002074
:1057100002280ADA21B1054A0B6842F8203004E079
:10572000024A034B1B6842F820307047A00000205B
:1057300028F500082DE9F04106460F463C4600BF1B
:105740002146621C94B2304605F093F80546002DC0
:1057500000DB1CB94FF6FF70BDE8F08105F0C0001A
:10576000C02800D114E060193189884202DB4FF66D
:10577000FF70F1E7601984B22146304605F079F8F0
:105780000546002D02DA4FF6FF70E5E7002DD7D170
:1057900000BF4FF6FF70844200D1DDE7601C80B28D
:1057A000DAE710B500BF00BFFFF7BCFC10BD0A462A
:1057B00000BF00BF1146C3681B680B60C368196057
:1057C00070470246D068016831B10868D368186034
:1057D00000BF00BF0846704700BF00BF0020FAE7C7
:1057E000002100E0491C0A2905D2064800EB0110FF
:1057F00000680028F6D10A2901D001207047002056
:10580000FCE7000098F600202DE9FE4F054688468B
:1058100016464FF00A09CA460A270024BB46002054
:1058200002900190009000BF68E004EB44005A4AE7
:1058300002EBC000017D0A2F04D119B900BF00BFDF
:10584000274659E0002957D000BF00BFB5B104EB8F
:105850004402514B03EBC2022868526890420DD1BA
:105860003EB104EB44001A4602EBC0008068B0422F
:1058700004D100BF00BF2046BDE8FE8F012928D11A
:1058800004EB4400444A52F8300080B104EB440079
:1058900002EBC000428A029882422DDBA34604EB51
:1058A00044003D4A02EBC000408A029024E004EB31
:1058B0004400394A02EBC000428A019882421BDB55
:1058C000A14604EB4400344A02EBC000408A019038
:1058D00012E0022910DB04EB44002F4A02EBC00067
:1058E000428A0098824207DBA24604EB44002A4A1F
:1058F00002EBC000408A0090601C04B20A2C94DBCA
:1059000008F0020020B90A2F07D108F0010020B9E1
:1059100000BF00BF4FF0FF30AEE70A2F02DA3C466F
:1059200000BF1DE0BAF10A0F04DA544600BF00BF01
:1059300000BF10E0B9F10A0F02DA4C4600BF0AE0DE
:10594000BBF10A0F02DA5C4600BF04E000BF00BFF3
:105950004FF0FF3090E700BF00BF204600F01EF878
:1059600000BF00BF00BF00BF35B104EB44010A4ACD
:1059700002EBC10128684860002004EB4401064A9C
:1059800002EBC101488204EB4400114601EBC00068
:105990008660204670E7000068F1002010B50446DC
:1059A00004EB4400194951F8300070B100BF00BF4A
:1059B00004EB4401154A52F8310001F0EBFD0020E0
:1059C00004EB4401114A42F83100002004EB440189
:1059D0000E4A02EBC101087504EB440102EBC10160
:1059E000488204EB440102EBC101886004EB4401EE
:1059F00002EBC101486004EB4400114601EBC0001A
:105A000003490A68C2608988018210BD68F10020DC
:105A100036F50008F0B587B007460D4600BF0DB952
:105A200007B0F0BD00BF7C682088B0F5807F08D14A
:105A30002079062805D16079042802D160880828D9
:105A400005D000BF00BF384604F080FDE8E7D4F879
:105A50000E000690A0690590686808B9002607E066
:105A600005986968884201D1012000E000200646BF
:105A70000EB1012000E00220034604F1080206A94D
:105A8000284600F01DFBE088B0F5807F03D0B0F51C
:105A9000007F1ED11AE000BF00BF86B1022206AB14
:105AA00004F10800291DCDE90232CDE9001005F10D
:105AB000220302461E31284600F01AFA05E0686803
:105AC00008B900BF01E000BF00BF05E000BF00BF94
:105AD00002E000BF00BF00BF00BF384604F036FD43
