:020000040800F2
:10000000A0680020C5010008110600083904000896
:10001000A5040008190300082B12000800000000C6
:10002000000000000000000000000000590C000863
:100030001D0300080000000089010008610D000890
:10004000DF010008DF010008DF010008DF01000810
:10005000DF010008DF010008DF010008DF01000800
:10006000DF010008DF010008DF010008DF010008F0
:10007000DF010008DF010008DF010008DF010008E0
:10008000DF010008DF010008DF010008DF010008D0
:10009000DF010008DF010008DF010008DF010008C0
:1000A000DF010008DF010008DF010008DF010008B0
:1000B000DF010008C90D0008DF010008DF010008AA
:1000C000DF010008DF010008DF010008DF01000890
:1000D000DF01000875100008DF010008DF010008DB
:1000E000DF010008DF010008DF010008DF01000870
:1000F000DF010008DF010008DF010008DF01000860
:10010000DF010008DF010008DF010008DF0100084F
:10011000DF010008DF010008DF010008DF0100083F
:10012000DF010008DF010008DF010008DF0100082F
:10013000DFF80CD000F0DEF8004800473513000867
:10014000A0680020EFF3108072B6704780F310882B
:10015000704772B606484FF0FF010170002080F32F
:10016000098804484FF08051C0F8001062B6FEE7DD
:1001700022ED00E004ED00E002484FF08051016004
:100180007047000004ED00E072B6EFF3098028B17B
:10019000203880E8F00F09490968086000B5DFF8E9
:1001A000200080475DF804EB90E8F00F203080F3EA
:1001B00009884EF0040E62B6704700004800002027
:1001C000410A00080648804706480047FEE7FEE768
:1001D000FEE7FEE7FEE7FEE7FEE7FEE7FEE7FEE7F7
:1001E000690D00083101000830B480EA010202F014
:1001F000004530F0004221F0004013D090B1C30D13
:10020000D40DC2F31601C0F31600E41A41F4000144
:1002100040F400027D34914201D3641C00E04900A7
:10022000002C02DA30BC002070474FF4000000239D
:10023000914201D3891A034340084FEA4101F7D1A3
:1002400051B1914202D14FF0004105E002D24FF08E
:10025000010101E06FF0010103EBC450284430BC00
:1002600000F010B896230022114600F014B80000E8
:10027000002801DBC0F10040002901DBC1F1004191
:10028000814270470029A8BF7047401C490008BF41
:1002900020F00100704710B4B0FA80FC00FA0CF0B6
:1002A00050EA010404BF10BC704749B1CCF12004EE
:1002B00021FA04F411FA0CF118BF0121214308437B
:1002C000A3EB0C01CB1D4FEA00614FEA102042BFA7
:1002D000002010BC704700EBC35010440029A4BF9D
:1002E00010BC7047401C490008BF20F0010010BC42
:1002F00070470000064C074D06E0E06840F001033F
:1003000094E8070098471034AC42F6D3FFF714FF87
:1003100084140008A414000800BFFEE770472DE90C
:10032000F04102460025002600200023002400277B
:1003300091F803C00CF00F0591F803C00CF0100CFD
:10034000BCF1000F03D091F802C04CEA050591F80A
:1003500000C0BCF1000F31D0146800202BE04FF03A
:10036000010C0CFA00F3B1F800C00CEA03069E423F
:1003700020D183004FF00F0C0CFA03F7BC4305FAB1
:1003800003FC4CEA040491F803C0BCF1280F06D129
:100390004FF0010C0CFA00FCC2F814C00AE091F80E
:1003A00003C0BCF1480F05D14FF0010C0CFA00FC62
:1003B000C2F810C0401C0828D1D31460B1F800C0A6
:1003C000BCF1FF0F34DD546800202EE000F1080C72
:1003D0004FF0010808FA0CF3B1F800C00CEA03066C
:1003E0009E4221D183004FF00F0C0CFA03F7BC435F
:1003F00005FA03FC4CEA040491F803C0BCF1280F91
:1004000005D100F1080C08FA0CF8C2F8148091F834
:1004100003C0BCF1480F07D100F1080C4FF00108F0
:1004200008FA0CF8C2F81080401C0828CED354609B
:10043000BDE8F0810161704700BFFEE7002004E0E5
:100440000021044A22F81010401CB0F5206FF7D3A9
:10045000704700006050002008B50121482000F0DE
:1004600077FB2020ADF8000010208DF8030003205A
:100470008DF8020069460948FFF751FF202107481F
:10048000FFF7D8FF2020ADF8000069460448FFF7C9
:1004900046FF20210248FFF7CDFF08BD000C0140B8
:1004A0000018014000BFFEE710B58C2000F000FAF4
:1004B00004460CB9002010BD24600020A0606060DC
:1004C0002046F8E770B504460D4616460CB90020E4
:1004D00070BDD6B900BF204600F036F80128FAD02A
:1004E00000F09CF96168481CC11700EBD16149110B
:1004F000A0EB4111616004F10C00616850F821002B
:10050000286000F09BF90120E2E7304600F064FA31
:10051000204600F019F8012814D000F07FF9616836
:10052000481CC11700EBD1614911A0EB411161607A
:1005300004F10C00616850F82100286000F07EF999
:100540000120C5E70020C3E70146D1E9010290423E
:1005500001D1012070470020FCE701468868421C59
:10056000D01702EBD0604011A2EB40104B689842CC
:1005700001D1012070470020FCE770B504460D460C
:1005800016460CB9002070BDCEB900BF2046FFF75B
:10059000E4FF0128FAD000F041F9A168481CC11716
:1005A00000EBD1614911A0EB4111A16004F10C00F5
:1005B000A16840F8215000F041F90120E3E73046FE
:1005C00000F00AFA2046FFF7C8FF98B900F026F9B4
:1005D000A168481CC11700EBD1614911A0EB411182
:1005E000A16004F10C00A16840F8215000F026F948
:1005F0000120C8E70020C6E710B5012000F058F937
:1006000004460CB9002010BD002020702046FAE7F7
:100610007047000070B5002100230F22C47804B396
:10062000154C246804F4E064C4F5E064210AC1F1C7
:100630000403CA40447804FA03F184781440214347
:1006400009010E4C0678A155047804F01F05012419
:10065000AC4005786D11AD0005F1E025C5F800410D
:1006600009E0047804F01F050124AC40044D06782D
:10067000761145F8264070BD0CED00E000E400E086
:1006800080E100E002490143024A11607047000026
:100690000000FA050CED00E02DE9FE4F06460F467E
:1006A00090461C46DDF830A01C2000F001F9814680
:1006B000B9F1000F02D10020BDE8FE8FA00000F0CC
:1006C000F7F8054625B9484600F0DEF80020F3E7C4
:1006D0000021601E05EB800043463A46CDE901410A
:1006E00000903146484600F00BF838B9284600F033
:1006F000CBF8484600F0C8F80020DDE74846DBE7C5
:100700002DE9F05F05468946924698460A9C15B940
:100710000020BDE8F09F0CB90020FAE700F0A4F833
:100720000746002F01DA0020F3E70B98A4EB800BBB
:1007300026464FF080702060201F0446C0F80090CD
:100740002D49201F044601604FF01231201F04463E
:1007500001604FF00331201F044601604FF0023169
:10076000201F044601604910201F04460160201F1D
:100770000446C0F800A04FF01131201F044601606C
:100780004FF01031201F044601604FF00931201F47
:10079000044601604FF00831201F044601604FF00D
:1007A0000731201F044601604FF00631201F044628
:1007B00001604FF00531201F044601604FF0043105
:1007C000201F044601602C600020E86028616D61F4
:1007D00001202876B8F10A0F01DD4FF00A0885F8EC
:1007E0001980C5F804B0AE600C98A876034840F8AC
:1007F000275001208DE70000F909000860640020FF
:10080000F8B504460D4616461F4600203B463246C4
:10081000294600902046FFF73FFFF8BD10B5FFF7CF
:1008200091FC0449086004480078401C02490870A3
:1008300010BD0000500000205400002010B50848F2
:10084000007800280BDD06480078401E0449087037
:100850000846007818B903480068FFF777FC10BD18
:100860005400002050000020002106E0054850F808
:10087000210008B908467047491C1029F6D34FF0EB
:10088000FF30F8E76064002010B50446204600F011
:10089000DDFC10BD00BF00BFFEE7000010B5FFF794
:1008A000CDFD01200149087010BD00005500002059
:1008B00010B50446204600F0E7FC10BD70B51C489A
:1008C0000068401C1A49086000242DE0194850F8BF
:1008D000240040B3174850F82400007E012822D19C
:1008E000144850F82400006970B1FFF72BFC05464E
:1008F000104850F824000069401E0E4951F8241099
:1009000008612846FFF722FCFFF71CFC0546094852
:1009100050F82400C068401C064951F82410C860F3
:100920002846FFF713FC641C102CCFD370BD0000C9
:10093000440000206064002010B50348007808B12E
:10094000FFF71AFC10BD00005500002010B5044848
:10095000007818B1FFF7B2FFFFF7EEFF10BD0000FF
:100960005500002010B540230A2200210448FFF75B
:1009700047FF00B910BDFFF7ECFB00BFFAE700002E
:100980009508000870B5FFF7DDFB0546002415E06B
:100990000F4850F824000F49096888420DD10D49CD
:1009A00009684868FFF770FF0A480068FFF76CFFA6
:1009B0000020074941F8240002E0641C102CE7D312
:1009C00000BF2846FFF7C2FBFFF7D6FB70BD000053
:1009D000606400204C00002070B50446FFF7B2FBB5
:1009E00005460448006804612846FFF7AFFBFFF79F
:1009F000C3FB70BD4C00002010B510480068807E1D
:100A000010B9FFF7BFFF18E00C48006890F8240009
:100A100010B9FFF7B7FF10E008480068C069074940
:100A20000968C968441A002C02DD2046FFF7D4FF8C
:100A30000248006800F0B0FA00BF10BD4C00002072
:100A400010B5002100223E480068807E012811D1A7
:100A50003B48006890F8250001280BD13848006811
:100A600080683C38374B1B6818600020344B1B688B
:100A700083F825003448006870B30020002128E086
:100A8000324B53F82130304C2468A34201D101206D
:100A90001EE001281BD12D4B53F82130BBB12B4B4D
:100AA00053F821301B7E012B11D1284B53F82130F4
:100AB0001B6963B9244B1B685B7E244C54F82140AE
:100AC000647EA34203D1214B53F8212030E000BFC4
:100AD000491C1029D4D300BF00201B4B18600021F3
:100AE00023E01A4850F82100E8B1184850F82100D6
:100AF000007E012817D1154850F82100006990B9EF
:100B00001AB1107E08B1106918B1104850F82120B0
:100B10000AE0507E0D4B53F821305B7E984202DD97
:100B20000A4850F8212000BF491C1029D9D300BF22
:100B3000044802600248026003480260106810BD69
:100B40004C00002048000020580000206064002075
:100B500029B1064A92690243044B9A6104E0034AB0
:100B600092698243014B9A61704700000010024075
:100B700030B500210022002400232D4D6D6805F0C2
:100B80000C0121B1042905D0082923D105E0294D04
:100B9000056022E0274D05601FE0254D6D6805F4D6
:100BA0007012234D6D6805F48034022505EB9242E6
:100BB0001CB9214D554305600BE01D4D6D6805F4D2
:100BC00000351DB11C4D5543056002E0194D5543DC
:100BD000056002E0174D056000BF00BF144D6D6851
:100BE00005F0F0010909154D6B5C0568DD404560B5
:100BF0000F4D6D6805F4E061090A104D6B5C4568A6
:100C0000DD4085600A4D6D6805F46051C90A0B4DE1
:100C10006B5C4568DD40C560054D6D6805F440417D
:100C2000890B074D6B5CC568B5FBF3F5056130BDFD
:100C30000010024000127A0000093D003000002040
:100C40004000002010B58023052200210148FFF755
:100C5000D7FD10BD790E0008704770B505460E46E9
:100C60000C20FFF725FE04460CB9002070BD25605E
:100C700066602046FAE710B500F002F810BD0000EB
:100C80000CB50020019000903348006840F480309B
:100C90003149086000BF3048006800F4003000901F
:100CA0000198401C0190009818B90198B0F5A06F08
:100CB000F1D12948006800F4003010B10120009003
:100CC00001E0002000900098012843D123480068EB
:100CD00040F01000214908600846006820F0030039
:100CE00008600846006840F0020008601A48406842
:100CF000194948600846406848600846406840F422
:100D0000806048600846406820F47C1048600846CF
:100D1000406840F4E81048600846006840F0807081
:100D2000086000BF0C48006800F000700028F9D08F
:100D30000948406820F003000749486008464068B9
:100D400040F00200486000BF0348406800F00C001B
:100D50000828F9D10CBD000000100240002002401C
:100D600010B5FFF7F3FD10BD10B51348006840F053
:100D700001001149086008464068104908400E49C2
:100D80004860084600680E4908400B49086008465C
:100D9000006820F4802008600846406820F4FE00C7
:100DA00048604FF41F008860FFF765FF4FF0006058
:100DB0000449086010BD0000001002400000FFF868
:100DC000FFFFF6FE08ED00E010B50121064800F037
:100DD00012F840B10121044800F00AF80348006805
:100DE000401C0249086010BD000400402C00002097
:100DF000CA430282704730B5024600200023002417
:100E0000158A05EA0103958905EA010413B10CB1BD
:100E1000012000E0002030BD1CB500BF15E000221D
:100E200001A90A480068FFF74DFB019800680A21F4
:100E3000B0FBF1F201FB1200303000900121684656
:100E400000F008FB1420FFF7C7FDE8E728000020AA
:100E500008B50120009000BF0BE00022694605485C
:100E60000068FFF78AFB0098401C0090C820FFF73D
:100E7000B3FDF2E7280000201CB5044600BF802324
:100E8000052200211548FFF7BBFC154908608023A7
:100E9000052200211348FFF7B3FC13490860B42072
:100EA000002180230522CDE90010104800F034F81D
:100EB0000F4908600846006800F0CEF806210020BF
:100EC000FFF7CBFE0B490860FFF796FB0A49086065
:100ED000FFF7EAFA094908601CBD0000190E000876
:100EE00014000020510E000818000020010F000817
:100EF0001C000020200000202400002028000020EA
:100F000010B5044600BF082101A000F0A3FA10BDEF
:100F100068656C6C6F0D0A002DE9FE4F0746884628
:100F200091461D46DDE90CAB2820FFF7C1FC0446C5
:100F300014B90020BDE8FE8FA800FFF7B9FC0646F3
:100F400026B92046FFF7A0FC0020F3E70121681E28
:100F500006EB80004B464246CDE9015100903946F0
:100F60002046FFF7CDFB38B93046FFF78DFC204611
:100F7000FFF78AFC0020DDE7FFF750FCC4F81CB047
:100F800084F824A0002084F8250020762762FFF74B
:100F900055FC2046CEE7000070B50546FFF73EFC45
:100FA000A8682860E86928610020E860012085F8C9
:100FB00025002C6800062060201F0446296A016075
:100FC0002449201F044601604FF01231201F0446BF
:100FD00001604FF00331201F044601604FF00231E1
:100FE000201F044601604910201F044601600021B3
:100FF000201F044601604FF01131201F044601609C
:101000004FF01031201F044601604FF00931201FBE
:10101000044601604FF00831201F044601604FF084
:101020000731201F044601604FF00631201F04469F
:1010300001604FF00531201F044601604FF004317C
:10104000201F044601602C60FFF7F8FBFFF794F8BF
:1010500070BD0000F909000810B504460CB9002065
:1010600010BDFFF7DBFB01202076FFF7E7FB012037
:10107000F6E7000010B540F22551044800F014F8DE
:1010800018B1024800F0CCF8C4B210BD00380140DD
:1010900021B1828942F40052828104E082894DF6B6
:1010A000FF731A408281704770B502460024002306
:1010B0000025002040F66A16B14200D100BFC1F3FE
:1010C000421501F01F03012606FA03F3012D02D198
:1010D0009689334006E0022D02D1168A334001E0A2
:1010E000968A33400C12012606FA04F4168834401E
:1010F00013B10CB1012000E0002070BDF0B5034633
:10110000002400260025002040F66A17B94200D1CD
:1011100000BF1846C1F3421401F01F06012707FA69
:1011200006F5012C01D10C3004E0022C01D1103065
:1011300000E014301AB107682F43076002E0076827
:10114000AF430760F0BD00002DE9F04786B00546CB
:101150000E460024A24600BFA1460027B08900B178
:1011600000BF2F462C8A4CF6FF700440F0880443E1
:101170002C82AC894EF6F3100440B08831890843C4
:10118000718908430443AC81AC8A4FF6FF400440A8
:10119000B0890443AC8201A8FFF7EAFC1F488742EC
:1011A00002D1DDF810A001E0DDF80CA0A88900F460
:1011B000004040B10AEBCA0000EB0A103168490058
:1011C000B0FBF1F807E00AEBCA0000EB0A10316847
:1011D0008900B0FBF1F86420B8FBF0F004012009AD
:1011E000642101FB1089A88900F4004040B132203D
:1011F00000EBC900B0FBF1F000F00700044308E089
:10120000322000EB09106421B0FBF1F000F00F0078
:1012100004432C8106B0BDE8F0870000003801408F
:1012200001468888C0F30800704700BFFEE702E06F
:1012300008C8121F08C1002AFAD170477047002061
:1012400001E001C1121F002AFBD1704770B50246B0
:1012500002B970BD0A4D541BE008B0F5206F00D9EB
:10126000F7E7084D35F81030014604E00025054E3B
:1012700026F81150491C1D188D42F7D800BFE8E729
:1012800060000020605000202DE9F05F07464FF01D
:101290000008C2463846FEF7E5FF83464FF082411C
:1012A000FEF7A2FF8146FD082846FEF7DBFF8346D6
:1012B0004946FEF7DDFF00D26D1C002412E01B48FA
:1012C00030F8140040B908F10108A84502D14FF0E8
:1012D000010A0AE0641C05E04FF00008134830F8EA
:1012E00014000444B4F5206FE9D300BFBAF1010F34
:1012F00002D1B4F5206F02D30020BDE8F09F681E34
:10130000241A26460AE0A64203D1084921F81450BF
:1013100003E00120054921F81600761C6019B0424F
:10132000F1D80348082101FB0400E6E760500020E3
:10133000600000204FF4A060FFF7A4F94FF4E13003
:1013400000F038F8FFF788F8FFF7A8FA16480068A9
:101350004FF47A72B0FBF2F1B1F1807F00D31DE05F
:1013600021F07F40401E4FF0E022506150170F22C5
:10137000002807DA13071D0E0C4B00F00F04241F82
:101380001D5503E013071C0E094B1C5400BF002021
:101390004FF0E02290610720106100BFFFF752FC80
:1013A000FFF7E0FA00BFFEE70000002018ED00E0C4
:1013B00000E400E010B586B00446012144F20500C7
:1013C000FFF7C6FB4FF40070ADF8140003208DF852
:1013D000160018208DF8170005A91C48FEF79FFF7E
:1013E0004FF48060ADF8140004208DF8170005A9B3
:1013F0001648FEF794FF25208DF8000000208DF898
:1014000001008DF8020001208DF803006846FFF707
:1014100001F901940020ADF80800ADF80A00ADF81C
:101420000C00ADF810000C20ADF80E0001A9084822
:10143000FFF78AFE012240F225510548FFF75EFEC4
:1014400001210348FFF724FE06B010BD000801404B
:101450000038014010B50246002000BF0CE000BF7C
:10146000074B1B8803F04003002BF9D0135C044C9E
:10147000241D2380431C98B28842F0DB10BD00007D
:1014800000380140A4140008000000205C000000A7
:101490002E120008001500085C00002044680000BF
:1014A0003E12000800A24A040000000000000000F4
:1014B0000102030406070809000000000000000004
:1014C000000000000000000000000000000000001C
:1014D00000000000000000000102030401020304F8
:1014E00006070809020406080000000000000000CA
:1014F00000000000000000000001000000000000EB
:0400000508000131BD
:00000001FF
