:020000040800F2
:10000000F0F20020CD010008C10F0008CB0D000860
:100010008D0E0008F9040008B31A00080000000063
:1000200000000000000000000000000009160008A9
:10003000B50B0008000000009101000885170008BA
:10004000E7010008E7010008E7010008E7010008F0
:10005000E7010008E7010008E7010008E7010008E0
:10006000E7010008E7010008E7010008E7010008D0
:10007000E7010008E7010008E7010008E7010008C0
:10008000E7010008E7010008E7010008E7010008B0
:10009000E7010008E7010008E7010008E7010008A0
:1000A000E7010008E7010008E7010008E701000890
:1000B000E7010008ED170008E7010008E701000864
:1000C000E7010008E7010008E7010008E701000870
:1000D000E7010008FD180008E7010008E701000833
:1000E000B90B0008E7010008E7010008E701000874
:1000F000E7010008E7010008E7010008E701000840
:10010000E7010008E7010008E7010008E70100082F
:10011000E7010008E7010008E7010008E70100081F
:10012000E7010008E7010008E7010008E70100080F
:10013000DFF80CD000F084F9004800477150000847
:10014000F0F200200138FDD170470000EFF310807D
:1001500072B6704780F31088704772B606484FF049
:10016000FF010170002080F3098804484FF080519E
:10017000C0F8001062B6FEE722ED00E004ED00E0FA
:1001800002484FF0805101607047000004ED00E02C
:1001900072B6EFF3098028B1203880E8F00F0949E2
:1001A0000968086000B5DFF8200080475DF804EBBF
:1001B00090E8F00F203080F309884EF0040E62B60C
:1001C00070470000400000200514000806488047E2
:1001D00006480047FEE7FEE7FEE7FEE7FEE7FEE72C
:1001E000FEE7FEE7FEE7FEE78D1700083101000895
:1001F000A0F14101192900D82030704710B5431AE9
:10020000934209D28318881803E010F8011D03F8FF
:10021000011D521EF9D210BD40EA01039B0703D015
:1002200009E008C9121F08C0042AFAD203E011F835
:10023000013B00F8013B521EF9D210BDD2B201E0E1
:1002400000F8012B491EFBD270470022F6E710B5DB
:1002500013460A4604461946FFF7F0FF204610BD34
:10026000CAB2401E10F8011F8A4202D00029F9D1FB
:1002700000207047421C10F8011B0029FBD1801A96
:10028000704710B5002200E0521C835C8C5CA342D6
:1002900001D1002BF8D1D8B2E1B2401A10BD30B56F
:1002A00004460020034600E05B1C934203D2E05C5E
:1002B000CD5C401BF8D030BD30B50546002003466C
:1002C00000E05B1C934205D2EC5CC85C201A01D1B3
:1002D000002CF6D130BD30B480EA010202F00045B6
:1002E00030F0004221F0004013D090B1C30DD40D86
:1002F000C2F31601C0F31600E41A41F4000140F401
:1003000000027D34914201D3641C00E04900002CBE
:1003100002DA30BC002070474FF400000023914205
:1003200001D3891A034340084FEA4101F7D151B183
:10033000914202D14FF0004105E002D24FF001019D
:1003400001E06FF0010103EBC450284430BC00F021
:1003500040B896230022114600F044B8002801DB83
:10036000C0F10040002901DBC1F10041814270472A
:100370002DE9F05F0546002092469B4688460646DA
:10038000814640241BE0284641464746224600F06D
:1003900078F853465A46C01A914110D31146184670
:1003A000224600F05FF82D1A67EB01084F462246FF
:1003B0000120002100F056F817EB00094E41201EE5
:1003C000A4F10104DFDC484631462A464346BDE835
:1003D000F09F0029A8BF7047401C490008BF20F0CB
:1003E0000100704710B4B0FA80FC00FA0CF050EA3B
:1003F000010404BF10BC704749B1CCF1200421FABC
:1004000004F411FA0CF118BF012121430843A3EBB6
:100410000C01CB1D4FEA00614FEA102042BF0020C3
:1004200010BC704700EBC35010440029A4BF10BC9F
:100430007047401C490008BF20F0010010BC704705
:10044000064C074D06E0E06840F0010394E8070021
:1004500098471034AC42F6D3FFF76EFED8B40008CC
:10046000F8B40008202A04DB203A00FA02F1002048
:1004700070479140C2F1200320FA03F319439040E2
:100480007047202A04DB203A21FA02F0002170474D
:1004900021FA02F3D040C2F12002914008431946EC
:1004A000704770B58C1810F8015B15F0070301D187
:1004B00010F8013B2A1106D110F8012B03E010F8C7
:1004C000016B01F8016B5B1EF9D12B0705D40023EA
:1004D000521E0DD401F8013BFAE710F8013BCB1A8C
:1004E000921C03E013F8015B01F8015B521EF9D581
:1004F000A142D8D3002070BD00BFFEE700B5282080
:1005000000F03EF90246292000F03AF942EA0022C2
:100510002A2000F035F942EA00422B2000F030F9A1
:1005200042EA0062104600BD70B505467948406950
:1005300040F48070774948610846806940F02000A7
:1005400088610846806940F04000886108468069FB
:1005500040F0800088610846806940F480708861BE
:100560006D4800686D4908406D4908436A49086054
:100570000846006800F0FF2040F0BB10091F08602B
:10058000684800684FF0BB3066490860081F006883
:1005900020F0704040F03040091F08606248006859
:1005A00062490840624908435F4908606148406801
:1005B00020F0FF0040F0B3005E4948605A48083020
:1005C000006840F4006058490831086001220B219E
:1005D000052000F01FFB022328220021012000F04B
:1005E00005FC00204FF020418860C8605249086037
:1005F0004FF02040806840F480504FF020418860E8
:100600000846806840F0100088600846C06840F4E2
:100610004070C8600846C068C8600846C06840F0BE
:100620000100C8606FF07040C1F80C010846806896
:1006300040F0010088604148046808204049087083
:1006400000204880812048700220087100213C4829
:1006500041718171210CC171210A01724472FF2024
:1006600037498872FF213648C17201734173817323
:10067000C1730174417400F091F9642001F0E1FC50
:10068000FFF73CFF04462F48844201D0012070BD93
:100690000DB90020FBE72A49087800F039FA00215B
:1006A000084600F063FA0021022000F05FFA3F21C3
:1006B000082000F05BFA3821092000F057FA0021E9
:1006C0000A2000F053FA00212F2000F04FFA2C21CD
:1006D000012000F04BFA0F21FE2000F047FA8021A4
:1006E0002D2000F043FA1648001D00F0F5F91448DB
:1006F0000A3000F0FFF93121052000F037FA80219F
:10070000FF2000F033FA0E484178FF2000F02EFA67
:100710000020BCE7001002400414014000F0FF007C
:10072000BB0B00BB04180140041C0140FF0F0FFF6E
:100730000080B000002001400C0100A0E8F7FF1F7E
:100740009C020020460A009070B505460C4645F014
:1007500040010C2000F00AFAE1B20D2000F006FA88
:10076000210A0E2000F002FA0A210B2000F0FEF907
:10077000322001F066FC00210B2000F0F7F970BD7B
:100780000146034801804FF0C840B0F800017047AF
:10079000FE0000642DE9FE430024611E57480068F6
:1007A00000F0DDFB00BFF020FFF7EAFF54480088AF
:1007B00000F0FF08B8F1000F7ED0B8F1010F11D999
:1007C00050A001F079F90021052000F0CFF9802137
:1007D000FE2000F0CBF94948006800F0E4FB204619
:1007E000BDE8FE83F2204649891E08804FF0C840CC
:1007F000B0F800010290881C008801904FF4C1728B
:10080000BDF80410002005F066F804468CB12546BA
:100810000CE06F686E8906E04FF0C840B0F8000148
:100820003880BF1CB61E002EF6DC2D68002DF0D1DE
:1008300010E0BDF804103CA001F03EF96F46BDF891
:10084000046005E04FF0C840B0F800013880B61EE3
:10085000002EF7D1BDF8080000F43F4040B9BDF8C4
:100860000400402804DBBDF80400B0F5C06F3FDD94
:10087000BDF8081032A001F01FF9BDF8080000F41F
:10088000807010B132A001F017F9BDF8080000F433
:10089000007010B132A001F00FF9BDF8080000F4AB
:1008A000004010B132A001F007F9BDF80400B0F526
:1008B000C06F0BDD33A000E00EE001F0FDF8012178
:1008C000002000F053F9052001F0BBFB14B12046D5
:1008D00005F0CCF9002466E70221FE2000F046F97D
:1008E00081202D49487008464178FF2000F03EF9EC
:1008F0000248006800F057FB204671E7180000200E
:1009000000010064646D393030302072783A207212
:1009100078206572726F722C2073746F702064651A
:10092000766963650D0A000070627566C4DAB4E624
:10093000C9EAC7EBCAA7B0DC3A25640D0A0000007B
:1009400072785F7374617475733A2523780D0A00A9
:100950007278206669666F206572726F720D0A0088
:10096000727820637263206572726F720D0A0000E4
:100970007278206C656E677468206572726F720D94
:100980000A0000007278206C656E67746820746FCE
:100990006F206269670D0A009C02002010B50020DC
:1009A0001B4908600A2001F04CFB01201949C1F8DD
:1009B000A001642001F045FB01211E2000F0D6F8C3
:1009C00000211F2000F0D2F80321002000F0CEF813
:1009D00000BF192001F035FB0020FFF7D1FE00F029
:1009E00001000028F5D10021084600F0BFF80321DE
:1009F000002000F0BBF800BF192001F022FB00200E
:100A0000FFF7BEFE00F001000028F5D110BD000088
:100A1000A001244200002442F8B504460027002625
:100A2000711E2A48006800F09AFA8021FF2000F029
:100A30009DF8F8202649088025461BE06889B842C1
:100A400016DD3846791C8FB26A68125C3046711C1C
:100A5000CEB20DF80020022E0CD19DF800009DF8BA
:100A6000011040EA01201A49891C0880002601E093
:100A70002D680027002DE1D1012E04D19DF8000042
:100A80001349891C0880217AFC2000F06FF8208926
:100A9000010AFD2000F06AF80121022000F066F84A
:100AA00000BFFE20FFF76CFE00F002000028F8D027
:100AB0000221FE2000F05AF806484178FF2000F09D
:100AC00055F80248006800F06EFAF8BD18000020E2
:100AD000FE0000649C02002010B50446002306E0DE
:100AE000E15C03F1100000F041F8581CC3B2062B82
:100AF000F6DB10BD10B50446002306E0E15C03F10F
:100B0000160000F033F8581CC3B2082BF6DB10BDFA
:100B100070B50646092E1BD2DFE806F0050C1A1A3E
:100B200008101A1A15000024212511E04FF48074D2
:100B300041250DE04FF40054812509E04FF40454A1
:100B400040F2011504E04FF4805440F2E11500BF7B
:100B500000BF21460020FFF7F7FD29460420FFF7DC
:100B6000F3FD00211F2000F001F870BD034A108042
:100B70004FF0C842A2F8001170470000FE00006468
:100B800070B50A480588FE20FFF7FAFD04462146A5
:100B9000FE20FFF7EBFF04F0010018B104480068E5
:100BA00000F067FD0148058070BD0000FE00006494
:100BB000140000207047000010B54FF4006000F0F2
:100BC00015F850B14FF4006000F00AF801E0FFF7AB
:100BD000D7FF024800680028F9D010BD2C812342BD
:100BE00001490860704700001404014001460020DC
:100BF0000022074B1B6803EA0102054B14331B68F4
:100C00000B4013B10AB1012000E000207047000042
:100C10000004014070B504460B46CE1701EB9676F2
:100C2000C6F38700CE1701EB9676B610A1EB8606C9
:100C3000B606350E1C4B9B6943F001031A4EB36197
:100C40004FEAB63353F820300F26AE40B343174E69
:100C500046F82030334653F8203004FA05F61E4398
:100C6000124B43F82060124B1B6801268E40334321
:100C70000F4E336002F0010343B10D4B0C331B6880
:100C800001268E4033430A4E0C36336002F00203D5
:100C900043B1074B08331E6801238B401E43044BAE
:100CA00008331E6070BD00000010024008000140C3
:100CB000000401402DE9F0410246002500260020F5
:100CC00000230024002791F803C00CF00F0591F8D1
:100CD00003C00CF0100CBCF1000F03D091F802C05F
:100CE0004CEA050591F800C0BCF1000F31D0146842
:100CF00000202BE04FF0010C0CFA00F3B1F800C01B
:100D00000CEA03069E4220D183004FF00F0C0CFA30
:100D100003F7BC4305FA03FC4CEA040491F803C052
:100D2000BCF1280F06D14FF0010C0CFA00FCC2F800
:100D300014C00AE091F803C0BCF1480F05D14FF090
:100D4000010C0CFA00FCC2F810C0401C0828D1D3DA
:100D50001460B1F800C0BCF1FF0F34DD546800200E
:100D60002EE000F1080C4FF0010808FA0CF3B1F87E
:100D700000C00CEA03069E4221D183004FF00F0C05
:100D80000CFA03F7BC4305FA03FC4CEA040491F89F
:100D900003C0BCF1280F05D100F1080C08FA0CF8CB
:100DA000C2F8148091F803C0BCF1480F07D100F1DC
:100DB000080C4FF0010808FA0CF8C2F81080401C2B
:100DC0000828CED35460BDE8F08100BFFEE70000E4
:100DD000002004E00021044A22F81010401CB0F565
:100DE000706FF7D370470000B07A00202DE9F04112
:100DF0000746884614461D46284600F033F8C5F1DC
:100E0000040007FA00F60F20284100EA0800064314
:100E100006F00F06E21704EBD2625211920002F1C3
:100E2000E022D2F800212146E31704EBD3635B11E3
:100E3000A4EB431C012303FA0CF31A432046E317E7
:100E400004EBD3635B119B0003F1E023C3F80021A3
:100E50000348005D40EA061001490855BDE8F081ED
:100E600000E400E00146072323EA01021202054BD9
:100E700018684FF6FF031840034B18431043014B0B
:100E8000186070470CED00E00000FA0500BFFEE7B7
:100E900010B58C2000F0E4F904460CB9002010BD18
:100EA00024600020A06060602046F8E770B504462A
:100EB0000E4615460CB9002070BD681CD0B900BFA5
:100EC000204600F037F80128FAD000F07FF9616879
:100ED000481CC11700EBD1614911A0EB41116160C1
:100EE00004F10C00616850F82100306000F07EF9D8
:100EF0000120E1E715B1284600F050FA204600F045
:100F000019F8012814D000F061F96168481CC11774
:100F100000EBD1614911A0EB4111616004F10C00BB
:100F2000616850F82100306000F060F90120C3E7EB
:100F30000020C1E70146D1E90102904201D1012020
:100F400070470020FCE710B5012000F089F9044645
:100F50000CB9002010BD002020702046FAE770B5C3
:100F600004460D460CB9002070BD681C58B900BF7E
:100F700020780028FCD100F029F90120207000F031
:100F800035F90120F0E715B1284600F007FA20787E
:100F900038B900F01BF90120207000F027F901207A
:100FA000E2E70020E0E710B504460CB9002010BDD0
:100FB00000F00CF90020207000F018F90120F6E78D
:100FC0007047000070B5002100230F22C47804B3DD
:100FD000154C246804F4E064C4F5E064210AC1F10E
:100FE0000403CA40447804FA03F18478144021438E
:100FF00009010E4C0678A155047804F01F05012460
:10100000AC4005786D11AD0005F1E025C5F8004153
:1010100009E0047804F01F050124AC40044D067873
:10102000761145F8264070BD0CED00E000E400E0CC
:1010300080E100E002490143024A1160704700006C
:101040000000FA050CED00E02DE9FE4F06460F46C4
:1010500090461C46DDF830A01C2000F001F98146C6
:10106000B9F1000F02D10020BDE8FE8FA00000F012
:10107000F7F8054625B9484600F0DEF80020F3E70A
:101080000021601E05EB800043463A46CDE9014150
:1010900000903146484600F00BF838B9284600F079
:1010A000CBF8484600F0C8F80020DDE74846DBE70B
:1010B0002DE9F05F05468946924698460A9C15B987
:1010C0000020BDE8F09F0CB90020FAE700F0A4F87A
:1010D0000746002F01DA0020F3E70B98A4EB800B02
:1010E00026464FF080702060201F0446C0F8009014
:1010F0002D49201F044601604FF01231201F044685
:1011000001604FF00331201F044601604FF00231AF
:10111000201F044601604910201F04460160201F63
:101120000446C0F800A04FF01131201F04460160B2
:101130004FF01031201F044601604FF00931201F8D
:10114000044601604FF00831201F044601604FF053
:101150000731201F044601604FF00631201F04466E
:1011600001604FF00531201F044601604FF004314B
:10117000201F044601602C600020E86028616D613A
:1011800001202876B8F10A0F01DD4FF00A0885F832
:101190001980C5F804B0AE600C98A876034840F8F2
:1011A000275001208DE70000BD130008B0980020F3
:1011B000F8B504460D4616461F4600203B4632460B
:1011C000294600902046FFF73FFFF8BD10B5FEF717
:1011D000BDFF0449086004480078401C02490870BB
:1011E00010BD0000480000204C00002010B5084849
:1011F000007800280BDD06480078401E044908707E
:101200000846007818B903480068FEF7A3FF10BD30
:101210004C00002048000020002106E0054850F85E
:10122000210008B908467047491C1029F6D34FF031
:10123000FF30F8E7B098002010B50446204600F0D3
:101240005BFC10BD00BF00BFFEE7000010B5FFF75C
:10125000BFFD00200149087010BD00004D000020B6
:1012600010B50446204600F065FC10BD70B51C4862
:101270000068401C1A49086000242DE0194850F805
:10128000240040B3174850F82400007E012822D1E2
:10129000144850F82400006970B1FEF757FF054666
:1012A000104850F824000069401E0E4951F82410DF
:1012B00008612846FEF74EFFFEF748FF054609483D
:1012C00050F82400C068401C064951F82410C8603A
:1012D0002846FEF73FFF641C102CCFD370BD0000E2
:1012E0003C000020B098002010B50348007808B1F9
:1012F000FEF746FF10BD00004D00002010B5044869
:10130000007818B1FFF7B2FFFFF7EEFF10BD000045
:101310004D00002010B540230A2200210548FFF7A8
:1013200047FF00B910BD012003490870FEF715FF03
:1013300000BFF7E7451200084D0000200148006893
:10134000704700003C00002070B5FEF7FFFE054628
:10135000002415E00F4850F824000F49096888421E
:101360000DD10D4909684868FFF766FF0A48006813
:10137000FFF762FF0020074941F8240002E0641CE7
:10138000102CE7D300BF2846FEF7E4FEFEF7F8FE78
:1013900070BD0000B09800204400002070B50446E5
:1013A000FEF7D4FE05460448006804612846FEF7AF
:1013B000D1FEFEF7E5FE70BD4400002010B51048D8
:1013C0000068807E10B9FFF7BFFF18E00C48006886
:1013D00090F8240010B9FFF7B7FF10E00848006844
:1013E000C06907490968C968441A002C02DD204613
:1013F000FFF7D4FF0248006800F020FA00BF10BDDC
:101400004400002010B5002100223E480068807E84
:10141000012811D13B48006890F8250001280BD124
:101420003848006880683C38374B1B6818600020DB
:10143000344B1B6883F825003448006870B30020E3
:10144000002128E0324B53F82130304C2468A3426D
:1014500001D101201EE001281BD12D4B53F8213072
:10146000BBB12B4B53F821301B7E012B11D1284BE4
:1014700053F821301B6963B9244B1B685B7E244CF5
:1014800054F82140647EA34203D1214B53F821201C
:1014900030E000BF491C1029D4D300BF00201B4BF3
:1014A0001860002123E01A4850F82100E8B11848DC
:1014B00050F82100007E012817D1154850F821006E
:1014C000006990B91AB1107E08B1106918B11048BE
:1014D00050F821200AE0507E0D4B53F821305B7EFE
:1014E000984202DD0A4850F8212000BF491C10290B
:1014F000D9D300BF0448026002480260034802607A
:10150000106810BD44000020400000205000002062
:10151000B098002029B1064A92690243044B9A61AF
:1015200004E0034A92698243014B9A6170470000CC
:101530000010024030B500210022002400232D4D70
:101540006D6805F00C0121B1042905D0082923D1CB
:1015500005E0294D056022E0274D05601FE0254D7F
:101560006D6805F47012234D6D6805F48034022512
:1015700005EB92421CB9214D554305600BE01D4D12
:101580006D6805F400351DB11C4D5543056002E042
:10159000194D5543056002E0174D056000BF00BFBF
:1015A000144D6D6805F0F0010909154D6B5C056877
:1015B000DD4045600F4D6D6805F4E061090A104D8E
:1015C0006B5C4568DD4085600A4D6D6805F46051CF
:1015D000C90A0B4D6B5C4568DD40C560054D6D6803
:1015E00005F44041890B074D6B5CC568B5FBF3F50D
:1015F000056130BD0010024000127A0000093D0074
:101600002600002036000020704770B505460E46C3
:101610000C20FFF725FE04460CB9002070BD2560A4
:1016200066602046FAE770B504460D460CB9002006
:1016300070BD681C60B900BF20680028FCD0FFF7AF
:10164000C5FD2068401E2060FFF7D0FD0120EFE7B8
:1016500015B12846FFF7A2FE206840B1FFF7B6FD9E
:101660002068401E2060FFF7C1FD0120E0E7002058
:10167000DEE710B504460CB9002010BDFFF7A6FD4B
:101680002068401C2060D4E90001884201D96068CC
:101690002060FFF7ABFD0120EFE710B500F002F886
:1016A00010BD00000CB50020019000903348006888
:1016B00040F480303149086000BF3048006800F4D1
:1016C000003000900198401C0190009818B90198D2
:1016D000B0F5A06FF1D12948006800F4003010B1D6
:1016E0000120009001E0002000900098012843D1E3
:1016F0002348006840F0100021490860084600684F
:1017000020F0030008600846006840F0020008600E
:101710001A484068194948600846406848600846C9
:10172000406840F4806048600846406820F47C10BF
:1017300048600846406840F4E81048600846006881
:1017400040F08070086000BF0C48006800F0007036
:101750000028F9D00948406820F003000749486094
:101760000846406840F00200486000BF03484068F7
:1017700000F00C000828F9D10CBD00000010024058
:101780000020024010B5FFF7B9FD10BD10B5134899
:10179000006840F00100114908600846406810499F
:1017A00008400E494860084600680E4908400B4949
:1017B00008600846006820F48020086008464068F9
:1017C00020F4FE0048604FF41F008860FFF765FFBB
:1017D0004FF000600449086010BD00000010024096
:1017E0000000FFF8FFFFF6FE08ED00E010B5012154
:1017F000064800F012F840B10121044800F00AF850
:1018000003480068401C0249086010BD0004004005
:101810001C000020CA430282704730B502460020F7
:1018200000230024158A05EA0103958905EA0104CD
:1018300013B10CB1012000E0002030BD70B50546A9
:10184000FFF7C4FCA8682860E86928610020E86008
:10185000012085F825002C6800062060201F044622
:10186000296A01602449201F044601604FF01231AB
:10187000201F044601604FF00331201F0446016021
:101880004FF00231201F044601604910201F04461A
:1018900001600021201F044601604FF01131201F1C
:1018A000044601604FF01031201F044601604FF0E4
:1018B0000931201F044601604FF00831201F044603
:1018C00001604FF00731201F044601604FF00631E0
:1018D000201F044601604FF00531201F04460160BF
:1018E0004FF00431201F044601602C60FFF77EFC9E
:1018F000FEF746FC70BD0000BD13000810B540F2B5
:101900002551044800F014F818B1024800F0CCF852
:10191000C4B210BD0038014021B1828942F40052A6
:10192000828104E082894DF6FF731A4082817047FC
:1019300070B50246002400230025002040F66A16F8
:10194000B14200D100BFC1F3421501F01F030126CF
:1019500006FA03F3012D02D19689334006E0022DE9
:1019600002D1168A334001E0968A33400C120126D8
:1019700006FA04F41688344013B10CB1012000E0DB
:10198000002070BDF0B5034600240026002500208D
:1019900040F66A17B94200D100BF1846C1F342149D
:1019A00001F01F06012707FA06F5012C01D10C30C2
:1019B00004E0022C01D1103000E014301AB10768A5
:1019C0002F43076002E00768AF430760F0BD0000E7
:1019D0002DE9F04786B005460E460024A24600BF1A
:1019E000A1460027B08900B100BF2F462C8A4CF6D3
:1019F000FF700440F08804432C82AC894EF6F3104B
:101A00000440B08831890843718908430443AC819C
:101A1000AC8A4FF6FF400440B0890443AC8201A871
:101A2000FFF788FD1F48874202D1DDF810A001E0D2
:101A3000DDF80CA0A88900F4004040B10AEBCA0010
:101A400000EB0A1031684900B0FBF1F807E00AEB3F
:101A5000CA0000EB0A1031688900B0FBF1F864207D
:101A6000B8FBF0F004012009642101FB1089A8896A
:101A700000F4004040B1322000EBC900B0FBF1F0AF
:101A800000F00700044308E0322000EB0910642155
:101A9000B0FBF1F000F00F0004432C8106B0BDE86C
:101AA000F08700000038014001468888C0F3080034
:101AB000704700BFFEE700000FB4054B10B503A947
:101AC000044A029800F08CF810BC5DF814FB00008A
:101AD000CD3200082000002002E008C8121F08C113
:101AE000002AFAD170477047002001E001C1121F9F
:101AF000002AFBD17047000070B5024602B970BDE4
:101B00000A4D541BE008B0F5706F00D9F7E7084D97
:101B100035F81030014604E00025054E26F8115036
:101B2000491C1D188D42F7D800BFE8E7B00200201D
:101B3000B07A00202DE9F05F07464FF00008C2465A
:101B40003846FEF706FC83464FF08241FEF7C3FBA2
:101B50008146FD082846FEF7FCFB83464946FEF712
:101B6000FDFB00D26D1C002412E01B4830F814006D
:101B700040B908F10108A84502D14FF0010A0AE076
:101B8000641C05E04FF00008134830F814000444CA
:101B9000B4F5706FE9D300BFBAF1010F02D1B4F50B
:101BA000706F02D30020BDE8F09F681E241A2646FD
:101BB0000AE0A64203D1084921F8145003E00120AD
:101BC000054921F81600761C6019B042F1D8034887
:101BD000082101FB0400E6E7B07A0020B0020020F3
:101BE0002DE9FF4F8DB00F460546002606E025285B
:101BF0000BD0DDE90F1290476D1C761C2878002869
:101C0000F5D111B03046BDE8F08F0024A246A146C0
:101C10000122EC4900E0044315F8013F203B02FAA1
:101C200003F00842F7D128782A2810D06FF02F024D
:101C30002878A0F13001092914D80AEB8A0102EBB7
:101C4000410144F0020400EB010A6D1CF0E701CFF2
:101C50005FEA000A03D544F40054CAF1000A44F0D4
:101C600002046D1C28782E2817D115F8010F44F0B6
:101C700004042A280ED06FF02F022878A0F130013A
:101C800009290AD809EB890102EB410100EB01099E
:101C90006D1CF2E757F8049B6D1C28786C280FD058
:101CA00006DC4C2817D068280DD06A2814D104E02F
:101CB000742810D07A280FD10DE044F400140AE003
:101CC00044F4801401E044F440146978814202D164
:101CD00004F580146D1C6D1C2A786E2A1FD00CDC54
:101CE000632A31D004DC002A8BD0582A11D1A3E01A
:101CF000642A68D0692A0CD165E0732A2ED004DCEE
:101D00006F2A73D0702A04D19BE0752A6FD0782A8D
:101D10006ED01046DDE90F129047761C50E1C4F3F7
:101D20000250022806D0032809D0042801CF09D088
:101D3000066045E101CFF117C0E9006140E101CF44
:101D400006803DE106703BE117F8040B8DF80000BA
:101D500000208DF80100EB46012003E057F804BB9A
:101D60004FF0FF3061074FF0000102D40DE008F1A1
:101D70000101884649450FDA8045F8DB1BF8081059
:101D80000029F4D108E008F1010188468142FADB1C
:101D90001BF808100029F6D1DDE90F23AAEB080093
:101DA0008146214600F036F9304400EB080604E095
:101DB000DDE90F121BF8010B9047B8F10108F7D2CB
:101DC00021464846F7E00A21C4F302534FF0000BC6
:101DD0000891022B04D001CFC117032B09D00AE0D0
:101DE000FF1D27F00707F7E8020108E032E01FE0D7
:101DF00020E000B2C117042B01D140B2C117031E6D
:101E000071F1000307DA4FF0000CD0EB0C006CEB23
:101E100001012D2302E0230504D52B238DF8243066
:101E2000012303E0E30701D02023F7E7984658E0B9
:101E30000A2110E010210EE010204FF0000B089056
:101E40000CE010214FF0000B44F004044FF008099F
:101E5000089103E008214FF0000B0891C4F30253EE
:101E6000022B04D001CF0021032B06D006E0FF1D7A
:101E700027F00707F7E8020103E080B2042B00D146
:101E8000C0B24FF0000823072BD5702A07D0DDF829
:101E900020C08CF0100C5CEA0B0C05D00EE0402347
:101EA0008DF82430012308E050EA010306D03023E6
:101EB0008DF824308DF8252002239846DDF820C0C7
:101EC0008CF0080C5CEA0B0C0BD150EA010301D139
:101ED000630706D530238DF824304FF00108A9F1AF
:101EE0000109582A04D038A20B9208AA0A920BE0E2
:101EF0003AA2F9E75B46089AFEF73AFA0B9B9B5C1D
:101F00000A9A521E0A92137050EA0102F2D10A98FC
:101F1000ADEB000000F1200B600702D524F4803403
:101F200001E04FF00109D94502DDA9EB0B0000E00B
:101F3000002000EB0B0141440890AAEB010AE003EA
:101F400006D4DDE90F232146504600F063F806442D
:101F50004FF0000908E009A911F80900DDE90F12A6
:101F6000904709F10109761CC145F4DBE0030CD56B
:101F7000DDE90F232146504600F04CF8064404E00A
:101F8000DDE90F1230209047761C0899481E089012
:101F90000029F5DC08E00A980A990078491C0A91A2
:101FA000DDE90F129047761CBBF10001ABF1010B8C
:101FB000F1DC21465046DDE90F2300F019F8064414
:101FC0006D1C1BE6092801003031323334353637B9
:101FD0003839616263646566000000003031323375
:101FE0003435363738394142434445460000000015
:101FF0002DE9F041044600251E461746880404D406
:1020000005E039462020B0476D1C641EF9D52846EE
:10201000BDE8F0812DE9F041044600251E469046BA
:10202000C80301D5302700E02027880404D505E047
:1020300041463846B0476D1C641EF9D52846BDE8B8
:10204000F08110B504464FF47A7104FB01F000F002
:1020500001F810BD10B5044604EB44018800FEF7FA
:1020600071F810BD0146002051B1CA7A521C022AF3
:1020700006DACA7A521C034B53F8222002B101201F
:10208000704700007000002070B504460D460C48F3
:1020900050F8340078B10A4901EBC4014A6804EBF6
:1020A0000411084E06EB011101F10F00044951F82B
:1020B0003430294698470020014941F8340070BD6A
:1020C000309D0020F098002010B5002404E0204648
:1020D00000F006F8601CC4B2042CF8DB10BD000050
:1020E00070B5064606EB06102E4901EB001400BF42
:1020F00000BFA07A00284ED0012804D0022815D0B5
:10210000032849D13CE000F0D1F820810220A072E0
:102110000020E0720120207300206073304600F040
:1021200019FA05460DB100BF00BF38E0207B401E04
:10213000C0B2207318BB607B401CC0B2607304281F
:1021400014D12046FFF78EFF38B1E07A401CE072D0
:1021500001202073002060730AE000BF00BF00214F
:102160003046FFF791FF0020A07218E0607B2073DB
:10217000304600F0EFF905460DB100BF00BF0EE09C
:10218000206818B12068401E206018B900BF00BF49
:102190000020A07203E002E000BF00BF00BF00BF4C
:1021A00070BD0000F09800202DE9F04706460F466C
:1021B0009046444600BF2146384603F0EAFE0546F5
:1021C000002D03DB4FF6FF70844203D14FF6FF7002
:1021D000BDE8F087601C84B205F0C000C02802D1C1
:1021E0004FF6FF70F4E721E02146384603F0D1FEB8
:1021F0008146B9F1000F02DA4FF6FF70E8E7307858
:10220000FDF7F6FF824609F0FF00FDF7F1FF82457A
:1022100002D04FF6FF70DBE74FF6FF70844200D12B
:10222000D6E7601C84B2761C6D1E00BF002DDBDC7F
:10223000761C2146384603F0ACFE0546002D02DA36
:102240004FF6FF70C4E7002DB5D14FF6FF70844202
:1022500000D1BDE7601C80B2BAE7000070B505464A
:102260000E4605EB05100F4901EB00140320A07288
:1022700000BF00BF00BF00BF00BF00BF26600A490B
:102280002068884201D908462060211D2846FFF7B2
:10229000FBFE206820B9A07A032801D10020A0729B
:1022A00070BD0000F0980020803A090000BF0E4A7F
:1022B0001288521C90B20C4A1080002111E001EBF0
:1022C00001120A4B03EB0212927A022A07D101EBA8
:1022D000011203EB02121289824200D1E7E74A1C85
:1022E000D1B20429EBDB704764000020F098002095
:1022F00010B500BF00BF00BF00BF00BF00BF0C484B
:10230000006898B92E2007F073FF0949086000BFE4
:1023100000BF00BF00BF00220868064907F0C6FDE5
:10232000034900220868044907F096FF10BD000029
:102330006800002060A500083D2300082DE9F04F4B
:1023400089B017469A463889102802DA00BF00BFC4
:10235000F7E000230C2206A9384603F047FC0C28BE
:1023600072D1BDF8180002F012FE81460025E4E0AB
:1023700005EB0510754901EB0016B07A02286FD104
:1023800030894845FBD1BDF81C0002F000FE8346B1
:10239000BDF81E0002F0FBFD80469DF81A0000F01B
:1023A000800010B900BF00BFCBE0BBF1010F02D02D
:1023B00000BF00BFC5E0F17A654A52F82110DAF893
:1023C0000000884200D0BCE00C22394606F10F0024
:1023D000FFF7EAFE04464FF6FF718C4202D100BFC0
:1023E00000BFAEE02346042202A9384603F0FEFBFC
:1023F000042800D0A5E0BDF80A00B0F5807F05D123
:1024000000BFBDF80800B0F5807F02D000BF00BF5C
:1024100097E0201DB0F5803F00DB92E0201D84B2E4
:102420009DF81B0000F00F0078B100BF00BF3046E0
:10243000FFF718FE00286FD003207073012030735F
:102440002846FFF74DFE7CE07AE05DE02146384605
:1024500000F042F904464FF6FF70844201D170E06B
:1024600069E023460A2203A9384603F0BFFB0A2885
:1024700000D066E004F10A00B0F5803F00DB60E0C8
:1024800004F10A0084B2BDF80E00B0F5807F28D1B7
:10249000BDF80C00B0F5807F22D1BDF81400B0F576
:1024A000806F1DD12346042201A9384603F09EFB0C
:1024B000042800D045E005EB0511244A02EB011188
:1024C00001984860384603F0D1FB049802F052FDB1
:1024D000014600902846FFF7C1FE09B0BDE8F08F25
:1024E00000BFBDF8140002F052FD2044B0F5803F5B
:1024F00000DB26E0BDF8140002F049FD204484B260
:10250000A8F101001FFA80F8B8F1000F02DD388948
:10251000A0429BDC00BF00BF384603F0A7FB0021B0
:102520002846FFF7B1FD002005EB0511074A02EB35
:1025300001118872D1E7681CC5B2042DFFF618AFEF
:1025400000BF384603F092FB00BFC6E7F0980020BA
:10255000700000202DE9F04F89B083460BEB0B1083
:10256000514901EB001600BF00BF00BF00BFF07A69
:102570004E4951F8200040B900215846FFF784FD2C
:102580000020B07209B0BDE8F08F06F10F00FDF732
:1025900071FE123080B24FF4207201460290362054
:1025A00003F099F90746002F73D00020069007909A
:1025B0000890308902F0EBFCADF8180001208DF88E
:1025C0001A000002ADF81C000C2206A9384603F0E0
:1025D00063FC06F10F04641E0C2500BF641CA046BA
:1025E0004FF0000904E009F1010000F0FF09641C4C
:1025F00020782E2802D020780028F4D1A4EB0800FF
:1026000080B2049005EB0900401CB0F5803F00DB70
:1026100043E04A462946384603F09EFB681C83B2D5
:1026200041463846049A03F077FC05EB0900401C4C
:1026300085B220780028D1D100222946384603F0FF
:102640008BFB681C85B24FF48070ADF81400ADF8B8
:1026500016002B46042205A9384603F05DFC002035
:10266000039000BF00BF35200190F07A0F4901EBC5
:10267000800002900E4A039952F821003946DDE9A4
:10268000013207F0F1FD8246384603F0EFFA02E02E
:10269000FFE74FF0FF3A504674E7384603F0E6FA9A
:1026A0006FF005006EE70000F09800207000002039
:1026B0006800002002280ADA21B1054A0B6842F8B6
:1026C000203004E0024A034B1B6842F82030704778
:1026D0007000002060A500082DE9F04106460F4675
:1026E0003C4600BF2146621C94B2304603F051FCC8
:1026F0000546002D00DB1CB94FF6FF70BDE8F081E8
:1027000005F0C000C02800D114E06019318988426A
:1027100002DB4FF6FF70F1E7601984B221463046C4
:1027200003F037FC0546002D02DA4FF6FF70E5E7AF
:10273000002DD7D100BF4FF6FF70844200D1DDE7F6
:10274000601C80B2DAE710B500BF00BFFFF7BCFC29
:1027500010BD0A4600BF00BF1146C3681B680B606E
:10276000C368196070470246D068016831B10868D3
:10277000D368186000BF00BF0846704700BF00BFA5
:102780000020FAE72DE9FE4F0546884616464FF031
:102790000A09CA460A270024BB460020029001907D
:1027A000009000BF68E004EB44005A4A02EBC0000E
:1027B000017D0A2F04D119B900BF00BF274659E097
:1027C000002957D000BF00BFB5B104EB4402514B04
:1027D00003EBC2022868526890420DD13EB104EB6F
:1027E00044001A4602EBC0008068B04204D100BF2A
:1027F00000BF2046BDE8FE8F012928D104EB44002C
:10280000444A52F8300080B104EB440002EBC000AF
:10281000428A029882422DDBA34604EB44003D4AE3
:1028200002EBC000408A029024E004EB4400394AE5
:1028300002EBC000428A019882421BDBA14604EBF6
:102840004400344A02EBC000408A019012E00229A1
:1028500010DB04EB44002F4A02EBC000428A0098D0
:10286000824207DBA24604EB44002A4A02EBC00086
:10287000408A0090601C04B20A2C94DB08F002002D
:1028800020B90A2F07D108F0010020B900BF00BF0E
:102890004FF0FF30AEE70A2F02DA3C4600BF1DE0E2
:1028A000BAF10A0F04DA544600BF00BF00BF10E0BF
:1028B000B9F10A0F02DA4C4600BF0AE0BBF10A0F79
:1028C00002DA5C4600BF04E000BF00BF4FF0FF30FB
:1028D00090E700BF00BF204600F01EF800BF00BF19
:1028E00000BF00BF35B104EB44010A4A02EBC1014D
:1028F00028684860002004EB4401064A02EBC1014D
:10290000488204EB4400114601EBC000866020467B
:1029100070E70000C0E9002010B5044604EB440055
:10292000194951F8300070B100BF00BF04EB4401F9
:10293000154A52F8310000F0D7FC002004EB4401A6
:10294000114A42F83100002004EB44010E4A02EB28
:10295000C101087504EB440102EBC101488204EB9C
:10296000440102EBC101886004EB440102EBC101A8
:10297000486004EB4400114601EBC00003490A68BB
:10298000C2608988018210BDC0E900206EA50008E0
:10299000F0B587B007460D4600BF0DB907B0F0BDD2
:1029A00000BF7C682088B0F5807F08D12079062898
:1029B00005D16079042802D16088082805D000BFBD
:1029C00000BF384603F052F9E8E7D4F80E0006904D
:1029D000A0690590686808B9002607E0059869684D
:1029E000884201D1012000E0002006460EB10120FE
:1029F00000E00220034604F1080206A9284600F080
:102A00001DFBE088B0F5807F03D0B0F5007F1ED1BC
:102A10001AE000BF00BF86B1022206AB04F1080035
:102A2000291DCDE90232CDE9001005F1220302464D
:102A30001E31284600F01AFA05E0686808B900BFA0
:102A400001E000BF00BF05E000BF00BF02E000BF23
:102A500000BF00BF00BF384603F008F900BF9DE784
:102A60002DE9FE43044689461546A84600BF00BF2F
:102A700000BF00BF00BF00BF2146286801F076FA02
:102A800008B1494F85E0287800F0F000E02815D122
:102A900001208DF8040000208DF805005E208DF8DF
:102AA0000600687800F07F008DF80700A8788DF8A0
:102AB0000800E8788DF8090001AF69E02868A1688E
:102AC0000840D4E90112114088420ED0288880B213
:102AD0004FF6A961884208D0E06810B104F10C08F3
:102AE00003E06FF00300BDE8FE833048007800EBA0
:102AF00040002F4901EBC000007D02281BDB2B4862
:102B0000007800EB400001EBC0008068A04212D1C9
:102B10002649097801EB4101254A02EBC101D8F8A9
:102B200000004968884206D120480278494620467C
:102B300000F040F8D7E7002622E006EB46001C49EB
:102B400001EBC000007D022818DB06EB460001EB1C
:102B5000C0008068A04211D106EB4601144A02EB86
:102B6000C101D8F800004968884207D10F480670B3
:102B700032464946204600F01DF8B4E7701CC6B244
:102B80000A2EDADB4A464146204600F06FF8AAE7F3
:102B900000BF4FF400603B4604F12202494600901A
:102BA000204600F027FB9EE768A5000848020020A9
:102BB000C0E90020F8B505460E46144600BF00BF28
:102BC00004EB4400284901EBC000007D022839D104
:102BD00004EB440001EBC000408AB0F58E7F11DDAC
:102BE00004EB44000A4602EBC000011D284600F039
:102BF0008FF938BB032004EB44011B4A02EBC101EF
:102C000008751FE004EB4400174901EBC000408A3F
:102C1000B0F5877F16DB04EB44000B4603EBC000E6
:102C200000F10C0204EB440003EBC000011D284638
:102C300000F07CF930B9032004EB44010A4A02EBAE
:102C4000C10108754FF40060009004EB4400064990
:102C500001EBC00000F10C0305F1220231462846C9
:102C600000F0C8FAF8BD0000C0E900202DE9F04FDF
:102C700085B080460E46154608F1220004904FF0BC
:102C8000FF300390002002904146306801F06EF959
:102C900038B9307800F0F000E02802D00EB130688A
:102CA00030B900BF00BF6FF00F0005B0BDE8F08F76
:102CB000424601213046FFF765FD8146B9F1000F1C
:102CC00007DA00BF00BF0DB100BF00BF4FFA89F0A7
:102CD000EBE700BF00BF09F0FF0404EB44006149CB
:102CE00001EBC000007D70B90120029004EB4401AB
:102CF0005C4A02EBC101087504EB4400114601EB8C
:102D0000C000C0F8088000BF00BF029800B93DB9FC
:102D10003146404600F0FCF803900DB90398C4E733
:102D200000BF00BF04EB44004E4901EBC000007D32
:102D3000022811DB4C4804704FF40060009004EB53
:102D4000440001EBC00000F10C0329464046049A00
:102D500000F050FA039082E004EB4400414901EB9B
:102D6000C000007D01287AD1002001902F4609E0A3
:102D700000BF00BF387B00F0400010B1012001907F
:102D800002E03F68002FF3D100BF019838B12A4616
:102D90004FF420710E2002F0B3FE074603E02F46E9
:102DA000384603F02EF8002F53D00C2002F0D0FB51
:102DB0008246BAF1000F43D04FF0000B0020CAF852
:102DC0000000CAF8047004EB4400264951F83000B2
:102DD00080B104EB4401234A52F831000BF1010B9E
:102DE00002E000680BF1010B01680029F9D1C0F87D
:102DF00000A004E004EB44001A4941F830A0BBF104
:102E0000030F18D304EB4400164951F8300000902A
:102E100004EB440051F83000006804EB4401114A0F
:102E200042F831000099486802F020FF0C20009918
:102E300002F054FB00BF00BF00BF0020039007E07A
:102E4000384602F013FF00BF00BF4FF0FF30039081
:102E500004E000BF00BF4FF0FF30039000BF0398B5
:102E600023E70000C0E90020480200202DE9FC5FB4
:102E700081460E4617469846DDE90CAB00200190CE
:102E800000BF00BF4FF420721C210E2002F023FD72
:102E900005462DB900BF00BF4FF0FF30BDE8FC9FD5
:102EA00000BF00BF6C6800BF00BF0F9802F06FF852
:102EB000E08000BF00BFD8F80000A060B8F80400B0
:102EC000A081DBF80000C4F81200BBF80400E08227
:102ED000DAF80000C4F80E000E980068A0614FF404
:102EE000807020800820608006202071042060719E
:102EF00040F606003B46324629460090484600F020
:102F000079F9284602F0B2FE00250198C6E70000D4
:102F100070B504460D4600BF00BF034A294620464F
:102F200000F004F870BD000068A500087FB50446F5
:102F30000D4616460121074A201D04F122038DE8A3
:102F400025000391324619462046FFF78FFF04B053
:102F500070BD00006EA5000870B500BF00BF002462
:102F600066E004EB4400344901EBC000057D002D10
:102F70005DD004EB440001EBC000408A401C04EB30
:102F800044012D4A02EBC101488204EB4400114682
:102F900001EBC000408AB0F5967F0DDA04EB4400E7
:102FA00001EBC000007D01280CD104EB440001EBD3
:102FB000C000408A052805DB00BF00BF2046FFF7A0
:102FC000ABFC34E004EB44001B4901EBC000007D86
:102FD000032807D1042004EB4401174A02EBC10186
:102FE000087524E004EB4400134901EBC000007DA8
:102FF000042807D1022004EB44010F4A02EBC1016F
:10300000087514E004EB44000B4901EBC000007D9F
:1030100001280CD104EB44020B4603EBC202111D44
:1030200004EB440203EBC2029068FFF771FF641CDB
:103030000A2C96DB70BD0000C0E900202DE9F84F96
:1030400006460D461746994600BF00BF00BF00BFA9
:103050005DB1286848B13146286800F087FF20B983
:10306000287800F0F000E02805D100BF00BF6FF025
:103070000F00BDE8F88F324649462846FFF782FB2D
:103080000446002C01DA60B2F3E7022004EB4401AD
:10309000214A02EBC101087504EB4400114601EB23
:1030A000C000866000BF00BF04EB440001EBC0001D
:1030B0003968C160B9880182002004EB440102EB49
:1030C000C10148821FE004EB4400134951F83080ED
:1030D00004EB4401104AD8F8000042F83100D8F857
:1030E00004A041460C2002F0F9F94FF400603B4681
:1030F00006F1220251460090304600F07BF850461F
:1031000002F0B4FD00BF04EB4400034951F8300065
:103110000028D8D100BFACE7C0E900202DE9F0417C
:1031200004460E464FF00E0860890E2800DC59E078
:10313000E07B18B996F82C00401CE073656800BF6E
:1031400000BFAF89287800F00100B0B128780128CD
:1031500009D1687888B9A8785E280ED1607B40F0E4
:103160001000607309E0062221492846FDF797F810
:1031700018B9607B40F008006073082F03D0B7F5E2
:10318000C16F2AD114E096F8290000F0080000B9B8
:1031900028E04146204602F03DFE20B100BF00BFBE
:1031A00000BF00BF1EE03146204600F0F5FF15E0ED
:1031B00096F8290000F0080000B913E041462046C7
:1031C00002F028FE20B100BF00BF00BF00BF09E031
:1031D00031462046FFF7DCFB00E003E000BF0020A3
:1031E000BDE8F081204602F041FD0020F8E7000034
:1031F00068A500082DE9F04706460D461746984693
:10320000DDF82090484601F0C2FE82460E21284695
:1032100002F023FB00B117E06C68A4F80CA0D8F80A
:1032200000002060B8F80400A0803868C4F80600E8
:10323000B888608100BF00BF00BF00BF294630468C
:10324000B2699047BDE8F08700BF00BF6FF0010092
:10325000F8E7000010B5044600BF00BF652084F801
:103260002A006E212B200155044860610448A061AA
:10327000204601F0B1FC002010BD0000612A0008CA
:10328000334C000804461EE04FF0FF310E48006842
:10329000FEF7C9F90546012D15D112E0204601F0CF
:1032A000C1FC074667B12146384622699047064669
:1032B0003EB100BF00BF384602F0D8FC002700E056
:1032C00000E0EBE700BFDFE71400002000BF054A85
:1032D000128802F04002002AF9D0C2B2014B1B1D35
:1032E0001A8070470038014070B5044600BF00BF27
:1032F0000AE02546246800BF00BF686802F0B6FCFB
:1033000029460C2002F0EAF8002CF2D170BD0146EB
:10331000D1E90102801A70477047000070B5054678
:103320000E4605B116B96FF00F0070BD0B4C11E0E1
:1033300030466168FCF7A5FF58B9A0682860E068CE
:103340006860E068A8600020E860207C28740020A5
:10335000EBE72468002CEBD1A01FE6E738B30008A8
:103360002DE9F04107460D46164600BF00BF06B9DD
:103370001DB96FF00500BDE8F0810121284605F078
:103380009FFD00F04DFB044624B900BF00BF4FF085
:10339000FF30F0E7E5612146284603F0ABF8094924
:1033A000284605F061FB0849284603F00CFB04227F
:1033B0000649284604F0F0FC0549284605F07BFD47
:1033C0000020D8E7B9380008A134000855380008B3
:1033D000F739000870B506460C46606928B92146E1
:1033E000304600F055F8002070BD6069FFF78FFF90
:1033F0000546002D07DC00BF00BF2146304600F027
:1034000047F80020F0E700BF00BF0120ECE770B5EF
:1034100004460D4600222946204600F001F870BD02
:103420002DE9F04107460C46164600BF00BF0021BB
:10343000384603F05FF80021384605F015FB0021FF
:10344000384603F0C0FA00221146384604F0A4FCC6
:103450000021384605F02FFD14B1204600F0FCFA9B
:103460002EB1384602F0C4FF0020BDE8F081384696
:1034700003F09EF8054635B100BF00BF04220349A2
:10348000384604F089FC2846EFE70000553800086C
:1034900070B504460D4629462046FFF7B8FF70BDBB
:1034A00070B504460E46254600BF00BF15B128463C
:1034B00000F0D2FA70BD00002DE9F74F84B08246CB
:1034C0004FF0000B0027002003900598FCF7D2FE78
:1034D0000646002E59D0701E0599085C2F2854D13D
:1034E00042490598884201D1012E4ED1701E3F28D5
:1034F00001D93F2000E0701E04463CB122463B4803
:103500000599FCF77BFE002038490855002538E076
:103510001CB3C4F13F0002900298D8B1344951F86D
:103520003500FCF7A7FE0190DDE90110884201D2C9
:10353000029800E0019800902D4A52F835102B4A6D
:103540001019009AFCF75AFE002100982044274ADF
:10355000115400BFDFF8949002E0254850F83590F0
:1035600000BF00BF49465046FFF7D8FE8046B8F17D
:10357000000F05D1CDF81490D34600BF00BF02E084
:103580006D1C052DC4D300BF00BFBBF1000F19D1C6
:103590003F210598FCF764FE074617B100203870FC
:1035A0007F1C00BF00BF50460599FFF7B7FE80465D
:1035B000B8F1000F01D1D34604E005A9504600F050
:1035C00019F88346BBF1000F04D105A9504600F05D
:1035D00011F883460020CDE9000759465046DDE941
:1035E000053200F039F807B0BDE8F08FB0EE0020EA
:1035F0004CB3000870B506460C460EA0206030465D
:103600002168FFF78BFE054695B10DA0206030467E
:103610002168FFF783FE054655B10CA020603046B7
:103620002168FFF77BFE054615B10020206070BDC4
:103630003046FCE72F3430342E68746D6C00000087
:103640002F3430342E68746D000000002F34303475
:103650002E7368746D6C00002DE9F04704460D462A
:1036600016469A46DDE908892DB300BF00BF6561A3
:103670002868A06100BF00BF68686062002084F80D
:10368000280000BF00BFE6B16069007C00F00100C7
:10369000B8B10DA1626AA06901F0C5FC07464FB13F
:1036A000391DA269881AA1690144A161616A091AD8
:1036B000616200BF05E000206061A061606284F883
:1036C00028000020BDE8F0870D0A0D0A0000000068
:1036D0002DE9F74F84B00C46049E00BF00BF00BF29
:1036E00000BF606908B9A06930B100BF00BF6FF0CA
:1036F000070007B0BDE8F08F00BF00BF206A18B90F
:1037000000BF00BF266205E000BF00BF3146206A4F
:1037100002F0C4F9304602F074FB206A006898B1E8
:10372000206A008940F2FF31884202DA206A00896B
:1037300001E040F2FF30814600234A463E49206ABC
:1037400002F054FA3C4F08E07768B6F80A907089A6
:103750003189884201D000BF00BFB9F1070F57DBA4
:103760004A4636A1384601F05EFC8246BAF1000FA7
:103770004ED00020039000BF00BF042230A1384685
:10378000FCF79AFD10B9FD1C00BF06E0002038715F
:1037900000BF00BF6FF00F00ABE7681CC01BA9EBB8
:1037A000000080B2029028A1681C029A01F03BFC44
:1037B0008046B8F1000F07D120A1681C029A01F0E1
:1037C00032FC804601200390681CA8EB000080B208
:1037D0000190B8F1000F18D0A84516D94A461BA190
:1037E000384601F020FC78B1681C00900020287059
:1037F0000022DDE90001425400BF00BF2046039AC9
:103800000099FFF759FE74E701E000BF00BF00BF59
:10381000206A02F06CF98346206A0089B0F5806F57
:1038200005DABBF1050F02DC6FF0040061E700BFB1
:1038300000BF6FF00F005CE7B0EA00200D0A000047
:103840004745542000000000200000000D0A0D0A2A
:10385000000000002DE9F04105460E462C4600BF51
:1038600000BF4CB900BF00BF00213046FFF7CFFDBD
:1038700007460020BDE8F08114F8280F401C207096
:1038800014F82809042807D100BF00BF214630469C
:10389000FFF7BDFD0020EDE7606958B100BF00BF34
:1038A0002146304600F059F820B100BF00BF304635
:1038B00003F0F4FE0020DDE72DE9F04780460E46D8
:1038C00015469946444600BF00BFB9F1000F01D12B
:1038D00005B18CB935B12989304605F0E8F828469C
:1038E00002F0C4F90CB900BF00BF21463046FFF713
:1038F0008EFD0020BDE8F0872989304605F0D7F815
:10390000606918BB324621462846FFF7E1FE0746AC
:1039100000BF00BF781D30B1206A20B1206A02F0DC
:10392000A5F900202062284602F0A0F937B900BFAF
:1039300000BF2146304600F010F806E007F1100005
:1039400018B921463046FFF762FD04E000BF00BF12
:10395000284602F08BF90020CCE770B505460C46EE
:10396000002600BF00BF0CB9002070BD606A30B9EE
:1039700021462846FFF72EFD08B90020F5E721462D
:10398000284600F014F80646606A60B96069FFF7DF
:10399000BEFC002807DC00BF00BF21462846FFF719
:1039A00077FD0020E1E700BF00BF3046DDE7F8B556
:1039B00006460C4600274FF6FF71606A884201D226
:1039C000606A01E04FF6FF7080B2009000236A4603
:1039D0003046A16900F051F8054655B90127BDF8F8
:1039E0000010A0690844A061BDF80010606A401A88
:1039F00060623846F8BD2DE9F04105460E4617468F
:103A00002C4600BF00BF14B90020BDE8F0810020A3
:103A100084F8280021463046FFF79FFF0020F4E796
:103A200010B52C2001F024FC044614B1204600F00F
:103A30001DF8204610BD10B50446606920B16069CC
:103A4000FFF76AFC00206061206A20B1206A02F062
:103A50000DF90020206210BD10B504462CB120469F
:103A6000FFF7E9FF204601F043FB10BD10B5044607
:103A70002C212046FCF7E9FB10BD2DE9F047054657
:103A8000894690469A4600BF00BFB8F8004014B976
:103A90000020BDE8F087B5F86460A64200DA34463D
:103AA000688E4004060CB44200DD344600BF00BFFF
:103AB00000BF534622464946284605F0A4FD074666
:103AC000781C78B9B5F8640018B1B5F86600082814
:103AD00001DB012404E0204604EBD071C1F34F0464
:103AE00000BF00BF781C08B9012CE0DC27B900BF7B
:103AF00000BFA8F8004004E000BF00BF0020A8F805
:103B000000003846C5E710B500BF00BF2E2003F007
:103B100076FD044600BF00BF5021204600F002F8A9
:103B200010BD000070B504460D46B4B10121204619
:103B300005F0C6F92A460949204602F0DFFC064690
:103B400000BF00BFFF21204603F0A2FC044600BFD7
:103B500000BF0349204602F052FC70BD60A500087A
:103B60006133000870B505460C46224603212846FD
:103B700000F006F970BD00002DE9F04F85B0044655
:103B80008A467E4880680390039800780007870E75
:103B9000142F02DA00BF00BFE6E06089042802D2D9
:103BA00000BF00BFE0E0606805786068407804907E
:103BB00015B1082D71D100E0D1E0DFF8C09109F115
:103BC00014096E48007D00F0F000E02802D100BF2B
:103BD00000BFCDE0694A1168506900F0C7F910B123
:103BE00000BF00BFC4E000BF00BF2089082802D288
:103BF00000BF00BFB8E0204600F021F938B100BF97
:103C000000BF204602F032F805B0BDE8F08F07F1A2
:103C10000E01204601F021FE98B3208938441FFA96
:103C200080FB2089584502DD00BF00BFA0E04FF4B3
:103C3000207259460E2001F04EFE8046B8F1000F6A
:103C400002D100BF00BF93E0B8F80A1007F10800E6
:103C5000814205D200BF00BF404602F007F887E06E
:103C60003A46D8F804000399FCF7C8FA39464046AA
:103C700002F0D0F830B100BF00BF404601F0F6FFBF
:103C800076E010E02146404601F052FF30B100BF1F
:103C900000BF404601F0EAFF6AE04CE0204601F038
:103CA000E5FF444608E007F10E01204602F0B2F8B5
:103CB00010B100BF00BF5BE066683946204601F0E6
:103CC000CCFD08B100BF35E0D4F80480D9F800007D
:103CD000C8F80C0029480069C8F8100000203070AE
:103CE00070884FF6F771884203DD70880930708064
:103CF00002E0708808307080FF2088F808000020FB
:103D0000A8F80A003946404600F08FF8A8F80A00E3
:103D100001200021FF230A46CDE9010A009149460E
:103D2000204600F04DFB8346BBF1000F01D000BFE1
:103D300000BF00BF13E0032D0ED00B2D0CD00C2DB7
:103D40000AD0042D08D0052D06D00D2D04D00E2D3F
:103D500002D0112D00D000BF00BF00BF00BF00BFC8
:103D6000204601F083FF4FE7204601F07FFF4BE73D
:103D7000204601F07BFF00BF46E70000509D002079
:103D80002DE9FF470746884691464FF420722421CB
:103D9000222001F0A0FD05461DB900BF00BFBDE80F
:103DA000FF8700BF00BFD7F804A000BF00BF00BF5F
:103DB00000BF00BF00BF00BF00BF00BF00BF6C68F6
:103DC00084F8008084F801900020A080E080796869
:103DD0006A6802F108001C22FCF710FADAF80C00FD
:103DE000039003A800F0BEFC064686B10020608068
:103DF0006989204600F019F8608001200021FF2326
:103E000003AACDE901060091284600F0D9FA284618
:103E100001F02CFF00BFC2E770B505460C462246F4
:103E20000B212846FFF7ACFF70BD30B504460D46A8
:103E30002946204601F0C8F8C04380B230BDF0B535
:103E4000064600270024354619E06989686801F0B4
:103E5000BBF80444A0B200EB1444688900EBD071B5
:103E60004910A0EB410149B10FB9012000E0002049
:103E70000746E0B2C4F3072141EA00242D68002D73
:103E8000E3D127B1E0B2C4F3072141EA0024E043C3
:103E900080B2F0BD2DE9F0470746884691461E46A0
:103EA000DDF820A03568ACB24FF6FF7000EA15408F
:103EB0000444DAF80050A8B204444FF6FF7000EA58
:103EC00015400444A0B200EB1444A0B200EB14442B
:103ED00023464A464146384600F002F8BDE8F087DE
:103EE0002DE9F04706460F4690461C464FF0000964
:103EF00035461DE000BF00BF6989686801F064F8BD
:103F00000444A0B200EB1444688900EBD07149105E
:103F1000A0EB410159B1B9F1000F01D1012000E03E
:103F200000208146E0B2C4F3072141EA00242D6855
:103F3000002DDFD1B9F1000F04D0E0B2C4F30721A6
:103F400041EA0024384601F022F80444404601F0DA
:103F50001EF80444A0B200EB1444A0B200EB1444D9
:103F600000BF00BFE04380B2BDE8F08718B502464D
:103F70000092D04300B10AB9012018BD91F8290080
:103F800000F0020008B90020F7E74868904201D12C
:103F90000020F2E700988B681840D1E901342340F3
:103FA000984208D1886822EA00008C68E34398426E
:103FB00001D10120E1E70020DFE700002DE9F74F04
:103FC0008CB0044688464FF00009B8F82010A1F1E3
:103FD0001400C11700EB5171C1F3CF0A14200590F2
:103FE00060680990099D287800F00F001421B1EB5A
:103FF000800F04D06FF005000FB0BDE8F08F00BF58
:104000006089142802DA6FF00500F5E700BFE88840
:1040100000F0BDFF04900498C0F30C0007900498D2
:1040200000F400500390208914381FFA80FBA7E0A9
:104030004FF6FF7000EACA00584501DD584603E01C
:104040004FF6FF7000EACA0008904FF42072142166
:104050000E2001F040FC064606B997E000BF00BF05
:10406000142270680999FCF7C9F8756808980A90D5
:1040700047E061890598081A80B2029000BF00BF2E
:1040800002990A98884201DA0A9800E0029881466B
:10409000B9F1000F03D100200590246831E000F051
:1040A000BFFB07461FB9304601F0E0FD6EE06168D6
:1040B000059808443B4641224946CDE900090020C5
:1040C00001F0BFFC0B900B9830B9384600F0ADFB07
:1040D000304601F0CBFD59E0204601F092FE7C61B4
:1040E0002C48386130460B9901F0D8FC0A98A0EBB7
:1040F000090080B20A900A9810B100200590246847
:1041000000BF0A980028B4D10598484480B20590B1
:10411000B8F820001438584501DB012000E00020E9
:1041200006900798C0F30C000490069808B1039815
:1041300018B1049840F400500490049800F027FF50
:10414000E8800899143188B200F021FF68800020CF
:10415000688114212846FFF768FE6881D8F814307A
:10416000314640460E9A9847304601F07FFD089848
:10417000ABEB00001FFA80FB0798504480B2079019
:10418000BBF1000F7FF454AF002035E74FF0FF3054
:1041900032E70000B94B00082DE9F04706460F460C
:1041A000756828780421B1EB201F07D000BF00BF3D
:1041B000304601F05BFD0020BDE8F087287800075D
:1041C0004FEA9068688800F0E2FE814631894945EF
:1041D00003DD4946304601F0D4FD7089404505DBDA
:1041E0003089484502DBB8F1140F13DAB8F1140F27
:1041F00001DA00BF00BF7089404501DA00BF00BF8F
:104200003089484501DA00BF00BF304601F02EFD7D
:104210000020D1E741462846FFF707FE30B100BF36
:1042200000BF304601F022FD0020C5E72869534950
:104230004861E86808610846007D00F0F000E02869
:104240000AD197F8290000F0010018B1786808B188
:104250003C461CE000241AE0384600F093F808B110
:104260003C4614E000244548007D7F280FD0444898
:10427000046809E0BC4200D105E0204600F082F865
:1042800000B103E000BF2468002CF3D100BF3B491C
:1042900008693946FFF76AFE28B93848007C00F003
:1042A000F000E02806D100BF00BF304601F0DEFC80
:1042B000002081E734B900BF00BF304601F0D6FCD2
:1042C000002079E7E8884FF63F71084048B100BF09
:1042D00000BF304600F030F906460EB900206BE70B
:1042E000756800BF00BF00BF00BF2448046047607E
:1042F000856028780007800E204988814146304635
:1043000001F088FD687A01280DD0062806D0112812
:104310000ED13946304605F02BFE24E039463046B2
:1043200002F048FC1FE039463046FFF725FC1AE052
:10433000124948692146FFF719FE70B90F48007D00
:1043400000F0F000E02808D00FFA88F1304601F0C4
:10435000DAFC02213046FFF705FC00BF00BF304603
:1043600001F084FC00BF00BF0020044908604860E1
:10437000886088810861486100BF1DE7509D00206A
:10438000E001002010B5044600BF00BF94F82900EA
:1043900000F0010080B1606870B108484069616850
:1043A000884205D0054948692146FFF7DFFD18B16D
:1043B00000BF00BF012010BD0020FCE7509D002081
:1043C0002DE9FE4F07460C4615469846DDE90C9A46
:1043D0000E9EA34625B10CB1206808B906F1040B66
:1043E00043462A4659463846CDE9009A029600F0DF
:1043F00003F8BDE8FE8F00002DE9FF4F81B00646AF
:1044000089469846DDE90FA7002500BF00BF039845
:1044100000286AD04FF0140B1421304601F01DFA29
:1044200028B100BF00BFA81E05B0BDE8F08F7468BA
:1044300000BF00BF84F8088084F809A04AEA082079
:104440000006000C4AEA082140EA112005440398BE
:1044500000682061208A80B20544206905EB104580
:1044600058464FEAEB710BEB9171C1F3870141F0B4
:10447000400121700E98607021780E9840EA01206A
:104480000006010C22780E9840EA022041EA102032
:104490000544308900F07BFD608060880544002081
:1044A000E0802348008800F072FDA080A0880544C9
:1044B0001F480088401C1E490880B9F1000F03D135
:1044C0001C480068E06002E0D9F80000E060A089C4
:1044D00080B20544E06805EB1045A8B200EB154535
:1044E00005EB1545ED4365810CE07089142804DA6D
:1044F00000BF00BF6FF0010096E77468206900906C
:10450000CDF80CD000BF00BF388C48B13089398C51
:10451000884205DD39463046039AFFF74FFD83E7B1
:1045200000BF00BF7B6931463846039A98477BE756
:104530004A02002060A500082DE9F14F84B00498DC
:104540004568287800F00F001421B1EB800F02D0ED
:1045500000BF00BFFAE0E88800F019FDC0F30C00CE
:104560004FF6FF7101EAC00A688800F010FD0746A7
:1045700028780007810E02910299B94200DDE5E03A
:104580000298381A87B2049801F0B1FA06467348C7
:10459000018888190A280CDD3146284600F0AAFA5D
:1045A00020B16E48008830440A2802DD00BF00BFF9
:1045B000CCE06B48046813E06069E968884209D17F
:1045C000A0692969884205D1A089A988884201D1BA
:1045D000012000E0002010B100BF00BF02E024680D
:1045E000002CE9D100BF34B93146284600F006FA64
:1045F000044694B9AAE0E88800F0C9FCC0F30C00B6
:1046000058B9E08900F0C3FCC0F30C0028B11422B3
:10461000294604F10800FBF7F1FDE888012121EAB1
:1046200050100190019850B10AEB070188B2504533
:1046300003DB4FF6EB71884200DD7CE000BF2046D3
:10464000019A049900F0FAF883460BF1010000B9D1
:1046500071E042480088304440490880019850B1D8
:104660000AEB070188B2A083A17F41F00101A17785
:1046700000BF00BF00BFBBF1010F58D1A08B1430A9
:1046800080B2009060684068D0F80090606845682B
:10469000142204F108012846FBF7B0FD009800F051
:1046A00076FC68800020E880688114212846FFF7A6
:1046B000BCFB6881606804900DE0D9F804000390A9
:1046C0001421484601F0A6FB4946049801F0E6F99A
:1046D0000398D0F80090B9F1000FEED1204800689F
:1046E000844202D14FF000080EE01D48D0F800804F
:1046F00006E0D8F80000A04200D104E0D8F800801D
:10470000B8F1000FF5D100BF4146204600F060F936
:10471000049801F0ECF9064600BF00BF0F4800887E
:10472000801B0E490880049805B0BDE8F08F00BFDB
:1047300000BF0020F8E700BF00BF606828B900BFD5
:1047400000BF0021204600F043F900BF00BF00BFBA
:10475000049801F08BFA0020E6E7000050020020E8
:104760004C02002010B502462248016821E091F871
:10477000290000F00100D8B191F82900C0F38000B1
:10478000B0B14868A0B110688B681840D1E9013415
:104790002340984201D1084610BD91F8290000F04D
:1047A000020028B91068CB68984201D10846F3E7A7
:1047B00009680029DBD110480068A0B10E480068E4
:1047C00090F8290000F0010068B10B48006890F8EB
:1047D0002900C0F3800030B107480068406810B17C
:1047E00010787F2803D100BF00BF0020D4E7024823
:1047F0000068D1E7E0010020E40100202DE9F84342
:1048000004460D4616461F46DDF820803B463246DC
:1048100029462046CDF80080FFF73CFBBDE8F88331
:1048200010B5052000F094FE10BD10B5044600BF81
:1048300000BF2146052000F051FE10BD2DE9F74FC5
:1048400084B007468846002501200190D8F804006E
:1048500002900299488800F09AFB834602980078FB
:104860000007800E03900398584503DD681E07B0CB
:10487000BDE8F08F0398ABEB00001FFA80FB0299B4
:10488000C88800F084FBC0F30C004FF6FF7101EA0A
:10489000C00A00BF00BFD8F8044000202060A4F880
:1048A00004A00AEB0B00E080E088504502DA4FF0EC
:1048B000FF30DCE7D7F804903EE0D9F80460A08828
:1048C000B188884220DAC4F800909DB1A088E988B8
:1048D000884203DBE088B188884202DD4FF0FF3078
:1048E000C5E7C5F80080E888A18888420BD0002081
:1048F000019008E0E088B188884202DD4FF0FF3087
:10490000B5E7C7F804801AE0A088B188884202D1D0
:104910004FF0FF30ABE7A088F188884202DA4FF011
:10492000FF30A4E72DB1E888B188884201D000208B
:104930000190D6F800903546B9F1000FBDD100BF07
:10494000B9F1000F0FD155B100BF00BFC5F800800D
:10495000E888A188884206D00020019003E000BFCB
:1049600000BFC7F80480069818B9B87F00F00100AE
:1049700060B3019820B3786818B17868406880887F
:1049800010B1002001901BE02546D4F800900BE008
:10499000D9F80440E888A188884202D0002001901C
:1049A00005E02546D4F80090B9F1000FF0D100BF22
:1049B000019828B100BF00BF00BF00BF00BF00BF0B
:1049C000019808B1012052E7002050E700204EE78F
:1049D00070B504460D4608480068A04203D1064958
:1049E0002068086003E000BF00BF206828602146FF
:1049F000042000F073FD70BD4C02002070B5054628
:104A00000E46042000F0A4FD044674B93146284641
:104A100000F070F8B04203DB042000F099FD04467A
:104A20001CB900BF00BF002070BD20212046FBF74D
:104A30000CFC0F20E0770648006820600448046002
:104A40001422294604F10800FBF7D8FB2046EBE7C7
:104A50004C0200202DE9F04704468946002600BF9D
:104A600000BFB9F1000F01D000BF00BF6068D0F8EF
:104A70000480B8F80400C0B96568D8F80000606028
:104A8000142204F108016868FBF7B8FB01212846ED
:104A9000FFF7C2F9284601F02AF8074600BF00BF19
:104AA000F01986B2284601F0E1F8656810E0D5F803
:104AB0000480AA46D8F80050504601F018F807467E
:104AC00000BF00BFF01986B2504601F0CFF800BF1A
:104AD000002DECD149462046FFF77AFF00BF00BF0A
:104AE00003480088801B024908803046BDE8F087F3
:104AF000500200202DE9F84F05468946002700BFE7
:104B00000026B2460020009083461B48046821E03E
:104B10006069E968884207D1A0692969884203D1A0
:104B2000A089A988884201D0012000E0002068B156
:104B30000BF1010B1EB92646CDF800A006E0E07F80
:104B4000F17F884202DC2646CDF800A0206800B143
:104B5000A2462468002CDBD12EB130460099FFF725
:104B600079FF804647444F4502DABBF1010FC7DCAD
:104B70003846BDE8F88F00004C02002070B50026D2
:104B80000C48046813E0E07F002807DDE07F401E4A
:104B9000E07700BF00BF2646246808E000BF00BFE2
:104BA0002546246831462846FFF754FF00BF002CF5
:104BB000E9D170BD4C02002070B505462C4600BFFF
:104BC00000BF00BF00BF606910B1606901F04EF81E
:104BD0002046FFF72AFE70BD0146062081F8280016
:104BE0000F48007881F822000D4842782320425473
:104BF0000B488278242042540948C2782520425428
:104C00000748027926204254054842792720425419
:104C100040F2DC5008840E2081F829000020704703
:104C20005402002070B50546FBF7B4FD044620464B
:104C300070BD70B505460C462046FBF7EDFE002022
:104C400070BD0000C0218171A822C27101220272D0
:104C50006A224272154909790170144949794170F3
:104C60001249897981701149C979C1700F49097A4E
:104C700001710E49497A4171C0218172A822C27224
:104C8000002202731E224273FF218173FF22C2732E
:104C9000027400224274C0218174A822C2740022CE
:104CA0000275012242750021817570479C02002027
:104CB00010B588B001210020FCF7A7FC84490860EA
:104CC000FCF741F98349086000F012F90120FBF775
:104CD0002BFC10B1022008B010BD0021084604F0E2
:104CE0009FFF7D48FFF7AEFF7B48807A01067A4838
:104CF000C07A41EA00417848007B41EA00207649C9
:104D0000497B084302067448807A01067248C07ADB
:104D100041EA00417048007B41EA00206E49497B2E
:104D2000084300F47F4042EA00226B48807A010683
:104D30006948C07A41EA00416748007B41EA0020A7
:104D40006549497B084300F47F0042EA102262482B
:104D5000807A01066048C07A41EA00415E48007BE3
:104D600041EA00205C49497B084342EA1060079011
:104D70005948807B01065848C07B41EA00415648AB
:104D8000007C41EA00205449497C0843020652480D
:104D9000807B01065048C07B41EA00414E48007CC0
:104DA00041EA00204C49497C084300F47F4042EA34
:104DB00000224948807B01064748C07B41EA004108
:104DC0004548007C41EA00204349497C084300F4FF
:104DD0007F0042EA10224048807B01063E48C07BAB
:104DE00041EA00413C48007C41EA00203A49497CC4
:104DF000084342EA106006903748807C0106364836
:104E0000C07C41EA00413448007D41EA002032493B
:104E1000497D084302063048807C01062E48C07C4C
:104E200041EA00412C48007D41EA00202A49497DA1
:104E3000084300F47F4042EA00222748807C0106B4
:104E40002548C07C41EA00412348007D41EA00201A
:104E50002149497D084300F47F0042EA10221E48A0
:104E6000807C01061C48C07C41EA00411A48007D54
:104E700041EA00211848407D014342EA1160059053
:104E800016481749002205ABCDE90021029006AA79
:104E900007A9144800F06EFB04462CB1114800F03D
:104EA000BBFC104800F0C0FC0F48049004A900208F
:104EB000FDF700FCFCF78AF94FF40073062200218D
:104EC0000A48FCF775F9FCF791F9002003E70000A8
:104ED000140000201800002054020020B99C000893
:104EE000553200086C020020DF050505654F0008FB
:104EF00010B543F61C442046FCF7B2F9044908609B
:104F00000846006808B9012010BD0020FCE7000039
:104F1000780000202DE9F041044625466868804766
:104F200001F028F906460D49286809684718B81B9A
:104F3000B0F1004F01D3012000E0002030B129681A
:104F400088192246064901F057F904E0224604492F
:104F5000384601F051F9BDE8F08100003802002028
:104F6000154F000810B504460148FEF78BF910BD37
:104F70006C0200200146080601F47F4240EA02204C
:104F800001F47F0240EA122040EA116070470146B6
:104F90000806000C40EA1120704710B5002400BF3D
:104FA00000BF00BF00BF01F0D7F800F0FBF800F031
:104FB000A9FA00F0DBFB04F0D9FF01F0F9FDFDF7E1
:104FC00097F901F061F910BDF8B505460A462B4680
:104FD00000200090002103F0010636B1002A04DD14
:104FE00013F8010B8DF80100521E1C4603E034F843
:104FF000027B3944921E012AF9DC002A02DD207866
:105000008DF80000BDF80000014488B200EB1141AA
:1050100088B200EB114126B1C8B2C1F3072747EAB5
:10502000002188B2F8BD2DE9F04105460E469046B4
:105030003046FBF71FF9074617B92846BDE8F0814F
:105040002C460CE020783178884207D13A46314628
:105050002046FBF731F908B92046EFE7641C2078B9
:1050600020B1E01905EB08018842EBD90020E5E703
:105070004FF4A060FBF7DEFF4FF4E13004F0C6FE12
:10508000FCF7E4F8174800684FF47A72B0FBF2F1CD
:10509000B1F1807F00D31DE021F07F40401E4FF032
:1050A000E022506150170F22002807DA13071D0E67
:1050B0000D4B00F00F04241F1D5503E013071C0EB9
:1050C0000A4B1C5400BF00204FF0E02290610720E3
:1050D000106100BFFFF7ECFDFEF715FDFCF71AF9B4
:1050E00000BFFEE70000002018ED00E000E400E053
:1050F00070B5054615B900BF00BF70BD05F00300CF
:1051000030B100BF00BF00BF00BF00BF00BFF4E769
:10511000A5F108041F480068844205D305F10C007E
:105120001D490968884206D900BF00BF00BF00BF03
:1051300000BF00BFE1E70021184800F0BFFF207961
:1051400048B900BF00BF154801F02AF800BF00BFF2
:1051500000BF00BFD1E7204600F05EF848B900BFAD
:1051600000BF0E4801F01CF800BF00BF00BF00BF29
:10517000C3E7002020710A480068844201D2084831
:105180000460204600F01CFF044801F009F800BF4D
:10519000B3E700007C000020800000208400002095
:1051A0008800002010B500BF00BF16480068C01C72
:1051B00020F0030014490860084604684FF470505A
:1051C00020800020608020714FF4705000F046FF76
:1051D0000E4908600120096808714FF470500B49AE
:1051E0000968088009490968488007480068084933
:1051F00008600121074800F0C1FF08B100BF00BFEF
:1052000010BD0000780000207C00002080000020FD
:1052100088000020840000202DE9F041044620464B
:1052200000F0B8F80546208800F018FF06466088B0
:1052300000F014FF07462088B0F5705F10D8608832
:10524000B0F5705F0CD86088A84202D03888A842B8
:1052500006D106480068864205D07088A84202D070
:105260000020BDE8F0810120FBE700008000002065
:105270002DE9F0478046B8F1000F02D10020BDE8CB
:10528000F08708F1030020F0030085B20C2D00D256
:105290000C25B5F5705F01D8454501DA0020EEE731
:1052A0000021394800F00AFF3848006800F072F821
:1052B00006465EE0304600F0D1FE04462079002824
:1052C00053D1218806F10800081AA8424DD321883D
:1052D00006F10800091A05F1140081421DD306F1F8
:1052E000080028441FFA80F900BF00BF484600F0BC
:1052F000B5FE074600213971218839807E80A4F8E7
:105300000090012020713888B0F5705F07D0388890
:1053100000F0A4FEA0F8029001E0012020711B48DB
:105320000068844215D11948D0F800A004E0BAF80A
:10533000000000F093FE82469AF8040018B1144869
:1053400000688245F3D11148C0F800A000BF00BF3B
:1053500000BF0D4800F024FF00BF00BF00BF00BF2A
:1053600000BF00BF04F1080089E7304600F076FE78
:105370000688C5F57050B0429CD8034800F010FF75
:1053800000BF00BF00207AE78400002088000020D2
:1053900080000020014602480088081A80B2704749
:1053A0007C0000202DE9F84F81468B460BF103006D
:1053B00020F0030085B20C2D00D20C25B5F5705FEE
:1053C00001D85D4502DA0020BDE8F88F00BF00BFBC
:1053D0003E480068814503D33D480068814505D3B8
:1053E00000BF00BF00BF00BF4846EDE7A9F10808B5
:1053F0004046FFF7CFFF0646B8F80010881B083874
:105400001FFA80FA00BF00BF554501DD0020DBE731
:10541000554501D14846D7E700212E4800F04EFE01
:10542000B8F8000000F01AFE0446207920BB00BF47
:1054300000BF2088009006F10800284487B2264863
:105440000068A04204D1384600F008FE22490860F6
:10545000384600F003FE04460020207100982080AA
:105460006680A8F800702088B0F5705F03D02088AF
:1054700000F0F4FD478023E005F1140050451FD8EB
:1054800006F10800284487B200BF00BF384600F08C
:10549000E5FD044610480068844201D20E480460CD
:1054A00000202071B8F8000020806680A8F8007005
:1054B0002088B0F5705F03D0208800F0CFFD4780D2
:1054C000044800F06DFE48467EE700007C000020A6
:1054D00080000020840000208800002070B5044671
:1054E0000D4600BF112C00DB70BD00BF05B9FBE706
:1054F000034951F824002946FDF72BF900BFF3E7D3
:10550000A8A4000810B5002406E0054951F82400BD
:1055100000F008F8601C84B2112CF6D310BD000016
:10552000A8A4000810B50023C46823608368DB1CAE
:1055300023F00301002207E0C3681B680B60C36807
:10554000196083881944521CC3889342F4DC10BD4F
:1055500070B5044600BF112C01DB002070BD00BFF8
:10556000034951F82400FDF7FEF805462846F5E703
:10557000A8A400082DE9F04704460D4616461F462C
:10558000DDE9098ADDF8209000BF14B90020BDE8EC
:10559000F08700BF00BFB8F1000F01D10020F6E78F
:1055A00000BF05B9344D06B9334E07B9324F00205C
:1055B0006060A060E060314860610020208484F871
:1055C0002900C4F81C902E48007884F82C00C4F8F8
:1055D00010A03B4632462946204600F0EDF8204612
:1055E000C04708B10020D2E700BF94F82C20FF2A62
:1055F00002D1002284F82C200021224A106811E0F8
:1056000000BF00BF491C00BF00BF90F82C2094F8D9
:105610002C309A4205D194F82C20521C84F82C206E
:1056200002E000680028EBD100BF0028DDD194F82B
:105630002C00FE2803D100201149087004E094F8E2
:105640002C00401C0E4908700E48006820600D4870
:10565000046000BF00BF00BF00BF00BF00BF00BFAD
:1056600000BF00BF00BF00BF00BF00BF00BF00BF42
:1056700000BF20468BE7000060A50008AF57000878
:10568000E8010020E001002070B504460D462946DF
:10569000204601F075FF2946204604F083FD70BDC9
:1056A00010B503460868DC68A04201D1012000E083
:1056B000002040B909B9002000E00868D86000BFA8
:1056C00000BF012010BD0020FCE7F8B505460C46E0
:1056D000164600BF00BF00BF00BF2068696888424F
:1056E00001D1012000E00020A0B920680090686886
:1056F000306000BF00BF69463046FFF7C5FF0CB9F8
:10570000002000E0206868600121284600F02FF8A2
:105710000120F8BD0020FCE710B5034608689C682E
:10572000A04201D1012000E0002040B909B90020C9
:1057300000E00868986000BF00BF012010BD002095
:10574000FCE7000002466AB10748016808E091F8EA
:105750002C00401CC0B2904201D108467047096835
:105760000029F4D10020F9E7E0010020704770B56E
:1057700004460D4600BF00BF94F8290000F0040065
:1057800020B194F8290000F0010000B970BD05F0C7
:10579000010050B1606840B194F8290000F00800A1
:1057A00018B1211D2046FDF7B3FB00BFEEE703460D
:1057B0006FF00B00704700002DE9F84F80460C4653
:1057C00015461E464FF00009CA4604B9114C05B9EA
:1057D000104D06B90F4E0CB1206808B9012000E049
:1057E0000020074627B16A4621464046FFF76DFF75
:1057F0004A4629464046FFF78FFF5246314640460B
:10580000FFF74EFF27B96A4621464046FFF75DFF86
:10581000BDE8F88F60A500080249086000BF00BF1E
:1058200070470000E401002010B5044600BF04B931
:1058300010BD00BF94F8290000F0010058B900BF66
:1058400094F8290040F0010084F8290000BF0321EA
:105850002046FFF78CFF00BFEAE770B504460D460F
:1058600000222946204600F001F870BD70B50346BD
:10587000154600BF00BF13B1B1F5803F01D3012031
:1058800070BD09B90020FBE78AB21889104480B2C4
:10589000904201DA0120F3E71E7B06F0800048B158
:1058A0005868441A03F11000844209D200BF00BFB7
:1058B0000120E5E715B15868441A01E00120DFE74F
:1058C00000BF00BF5C60588910445881188910449B
:1058D00018810020D4E72DE9FE4F82460D46904600
:1058E000574600BF00BFB8F1010F0AD0B8F1410F11
:1058F00006D0B8F5C17F0BD0B8F5207F7CD14AE047
:1059000000BF42462946002000F07FF8044677E0B9
:10591000002400200290A94600BF1020FFF718FEC7
:10592000064636B914B1204600F0A0F90020BDE8C3
:10593000FE8FF81C20F00300C0F5007080B24845CF
:1059400001DD484605E0F81C20F00300C0F50070BA
:1059500080B283460020CDE9008006F11000384473
:10596000C01C20F003015B464A46304600F0E5F9D2
:1059700000BF00BF00BF00BF0CB9344601E0029871
:1059800006600296A9EB0B001FFA80F90027B9F117
:10599000000FC2DC34E0F81C20F00301E81C20F00A
:1059A0000300084486B206F110001FFA80F9E81CD3
:1059B00020F00300B04204D8E81C20F00300484562
:1059C00001D90020B3E74846FFF752FC04460CB962
:1059D0000020ACE70020CDE9008004F1100038443D
:1059E000C01C20F003012B462A46204600F0A5F9F2
:1059F00000BF00BF04E0FFE700BF00BF002096E744
:105A000000BF00BF00BF204691E72DE9FC410646DC
:105A10000C46174600BF00BF0F20FFF799FD054653
:105A200025B900BF00BF0020BDE8FC81002023464F
:105A300022463146CDE90070284600F07EF928461E
:105A4000F2E72DE9FC5F06460C4617469846DDE96D
:105A50000C9BB24600BF00BF0AF1030020F0030018
:105A60002044584504D900BF00BF0020BDE8FC9F7A
:105A7000B9F1000F06D00AF1030020F0030000EB9B
:105A8000090500E000250220234622462946CDE9EB
:105A90000070404600F051F94046E7E710B5024675
:105AA00000BF02B101B910BD00BF104604E0038978
:105AB0000C892344038100680368002BF7D100BFE1
:105AC00000BF00BF00BF03890C892344038101602C
:105AD00000BFE8E730B505460C4621462846FFF7EB
